{
  "_format": "hh-sol-artifact-1",
  "contractName": "NFT",
  "sourceName": "contracts/NFT.sol",
  "abi": [
    {
      "inputs": [],
      "stateMutability": "nonpayable",
      "type": "constructor"
    },
    {
      "anonymous": false,
      "inputs": [
        {
          "indexed": true,
          "internalType": "address",
          "name": "owner",
          "type": "address"
        },
        {
          "indexed": true,
          "internalType": "address",
          "name": "approved",
          "type": "address"
        },
        {
          "indexed": true,
          "internalType": "uint256",
          "name": "tokenId",
          "type": "uint256"
        }
      ],
      "name": "Approval",
      "type": "event"
    },
    {
      "anonymous": false,
      "inputs": [
        {
          "indexed": true,
          "internalType": "address",
          "name": "owner",
          "type": "address"
        },
        {
          "indexed": true,
          "internalType": "address",
          "name": "operator",
          "type": "address"
        },
        {
          "indexed": false,
          "internalType": "bool",
          "name": "approved",
          "type": "bool"
        }
      ],
      "name": "ApprovalForAll",
      "type": "event"
    },
    {
      "anonymous": false,
      "inputs": [
        {
          "indexed": true,
          "internalType": "address",
          "name": "previousOwner",
          "type": "address"
        },
        {
          "indexed": true,
          "internalType": "address",
          "name": "newOwner",
          "type": "address"
        }
      ],
      "name": "OwnershipTransferred",
      "type": "event"
    },
    {
      "anonymous": false,
      "inputs": [
        {
          "indexed": true,
          "internalType": "address",
          "name": "from",
          "type": "address"
        },
        {
          "indexed": true,
          "internalType": "address",
          "name": "to",
          "type": "address"
        },
        {
          "indexed": true,
          "internalType": "uint256",
          "name": "tokenId",
          "type": "uint256"
        }
      ],
      "name": "Transfer",
      "type": "event"
    },
    {
      "inputs": [],
      "name": "MINT_PRICE",
      "outputs": [
        {
          "internalType": "uint256",
          "name": "",
          "type": "uint256"
        }
      ],
      "stateMutability": "view",
      "type": "function"
    },
    {
      "inputs": [],
      "name": "TOTAL_SUPPLY",
      "outputs": [
        {
          "internalType": "uint256",
          "name": "",
          "type": "uint256"
        }
      ],
      "stateMutability": "view",
      "type": "function"
    },
    {
      "inputs": [
        {
          "internalType": "address",
          "name": "to",
          "type": "address"
        },
        {
          "internalType": "uint256",
          "name": "tokenId",
          "type": "uint256"
        }
      ],
      "name": "approve",
      "outputs": [],
      "stateMutability": "nonpayable",
      "type": "function"
    },
    {
      "inputs": [
        {
          "internalType": "address",
          "name": "owner",
          "type": "address"
        }
      ],
      "name": "balanceOf",
      "outputs": [
        {
          "internalType": "uint256",
          "name": "",
          "type": "uint256"
        }
      ],
      "stateMutability": "view",
      "type": "function"
    },
    {
      "inputs": [],
      "name": "baseTokenURI",
      "outputs": [
        {
          "internalType": "string",
          "name": "",
          "type": "string"
        }
      ],
      "stateMutability": "view",
      "type": "function"
    },
    {
      "inputs": [
        {
          "internalType": "uint256",
          "name": "tokenId",
          "type": "uint256"
        }
      ],
      "name": "getApproved",
      "outputs": [
        {
          "internalType": "address",
          "name": "",
          "type": "address"
        }
      ],
      "stateMutability": "view",
      "type": "function"
    },
    {
      "inputs": [
        {
          "internalType": "address",
          "name": "owner",
          "type": "address"
        },
        {
          "internalType": "address",
          "name": "operator",
          "type": "address"
        }
      ],
      "name": "isApprovedForAll",
      "outputs": [
        {
          "internalType": "bool",
          "name": "",
          "type": "bool"
        }
      ],
      "stateMutability": "view",
      "type": "function"
    },
    {
      "inputs": [
        {
          "internalType": "address",
          "name": "recipient",
          "type": "address"
        }
      ],
      "name": "mintTo",
      "outputs": [
        {
          "internalType": "uint256",
          "name": "",
          "type": "uint256"
        }
      ],
      "stateMutability": "payable",
      "type": "function"
    },
    {
      "inputs": [],
      "name": "name",
      "outputs": [
        {
          "internalType": "string",
          "name": "",
          "type": "string"
        }
      ],
      "stateMutability": "view",
      "type": "function"
    },
    {
      "inputs": [],
      "name": "owner",
      "outputs": [
        {
          "internalType": "address",
          "name": "",
          "type": "address"
        }
      ],
      "stateMutability": "view",
      "type": "function"
    },
    {
      "inputs": [
        {
          "internalType": "uint256",
          "name": "tokenId",
          "type": "uint256"
        }
      ],
      "name": "ownerOf",
      "outputs": [
        {
          "internalType": "address",
          "name": "",
          "type": "address"
        }
      ],
      "stateMutability": "view",
      "type": "function"
    },
    {
      "inputs": [
        {
          "internalType": "address",
          "name": "dest",
          "type": "address"
        }
      ],
      "name": "payments",
      "outputs": [
        {
          "internalType": "uint256",
          "name": "",
          "type": "uint256"
        }
      ],
      "stateMutability": "view",
      "type": "function"
    },
    {
      "inputs": [],
      "name": "renounceOwnership",
      "outputs": [],
      "stateMutability": "nonpayable",
      "type": "function"
    },
    {
      "inputs": [
        {
          "internalType": "address",
          "name": "from",
          "type": "address"
        },
        {
          "internalType": "address",
          "name": "to",
          "type": "address"
        },
        {
          "internalType": "uint256",
          "name": "tokenId",
          "type": "uint256"
        }
      ],
      "name": "safeTransferFrom",
      "outputs": [],
      "stateMutability": "nonpayable",
      "type": "function"
    },
    {
      "inputs": [
        {
          "internalType": "address",
          "name": "from",
          "type": "address"
        },
        {
          "internalType": "address",
          "name": "to",
          "type": "address"
        },
        {
          "internalType": "uint256",
          "name": "tokenId",
          "type": "uint256"
        },
        {
          "internalType": "bytes",
          "name": "_data",
          "type": "bytes"
        }
      ],
      "name": "safeTransferFrom",
      "outputs": [],
      "stateMutability": "nonpayable",
      "type": "function"
    },
    {
      "inputs": [
        {
          "internalType": "address",
          "name": "operator",
          "type": "address"
        },
        {
          "internalType": "bool",
          "name": "approved",
          "type": "bool"
        }
      ],
      "name": "setApprovalForAll",
      "outputs": [],
      "stateMutability": "nonpayable",
      "type": "function"
    },
    {
      "inputs": [
        {
          "internalType": "string",
          "name": "_baseTokenURI",
          "type": "string"
        }
      ],
      "name": "setBaseTokenURI",
      "outputs": [],
      "stateMutability": "nonpayable",
      "type": "function"
    },
    {
      "inputs": [
        {
          "internalType": "bytes4",
          "name": "interfaceId",
          "type": "bytes4"
        }
      ],
      "name": "supportsInterface",
      "outputs": [
        {
          "internalType": "bool",
          "name": "",
          "type": "bool"
        }
      ],
      "stateMutability": "view",
      "type": "function"
    },
    {
      "inputs": [],
      "name": "symbol",
      "outputs": [
        {
          "internalType": "string",
          "name": "",
          "type": "string"
        }
      ],
      "stateMutability": "view",
      "type": "function"
    },
    {
      "inputs": [
        {
          "internalType": "uint256",
          "name": "tokenId",
          "type": "uint256"
        }
      ],
      "name": "tokenURI",
      "outputs": [
        {
          "internalType": "string",
          "name": "",
          "type": "string"
        }
      ],
      "stateMutability": "view",
      "type": "function"
    },
    {
      "inputs": [
        {
          "internalType": "address",
          "name": "from",
          "type": "address"
        },
        {
          "internalType": "address",
          "name": "to",
          "type": "address"
        },
        {
          "internalType": "uint256",
          "name": "tokenId",
          "type": "uint256"
        }
      ],
      "name": "transferFrom",
      "outputs": [],
      "stateMutability": "nonpayable",
      "type": "function"
    },
    {
      "inputs": [
        {
          "internalType": "address",
          "name": "newOwner",
          "type": "address"
        }
      ],
      "name": "transferOwnership",
      "outputs": [],
      "stateMutability": "nonpayable",
      "type": "function"
    },
    {
      "inputs": [
        {
          "internalType": "address payable",
          "name": "payee",
          "type": "address"
        }
      ],
      "name": "withdrawPayments",
      "outputs": [],
      "stateMutability": "nonpayable",
      "type": "function"
    }
  ],
  "bytecode": "0x60a06040523480156200001157600080fd5b506040518060400160405280600b81526020017f4e46545475746f7269616c0000000000000000000000000000000000000000008152506040518060400160405280600381526020017f4e4654000000000000000000000000000000000000000000000000000000000081525081600090805190602001906200009692919062000230565b508060019080519060200190620000af92919062000230565b505050604051620000c090620002c1565b604051809103906000f080158015620000dd573d6000803e3d6000fd5b5073ffffffffffffffffffffffffffffffffffffffff1660808173ffffffffffffffffffffffffffffffffffffffff1660601b8152505062000134620001286200016260201b60201c565b6200016a60201b60201c565b60405180602001604052806000815250600890805190602001906200015b92919062000230565b5062000353565b600033905090565b6000600660009054906101000a900473ffffffffffffffffffffffffffffffffffffffff16905081600660006101000a81548173ffffffffffffffffffffffffffffffffffffffff021916908373ffffffffffffffffffffffffffffffffffffffff1602179055508173ffffffffffffffffffffffffffffffffffffffff168173ffffffffffffffffffffffffffffffffffffffff167f8be0079c531659141344cd1fd0a4f28419497f9722a3daafe3b4186f6b6457e060405160405180910390a35050565b8280546200023e90620002ee565b90600052602060002090601f016020900481019282620002625760008555620002ae565b82601f106200027d57805160ff1916838001178555620002ae565b82800160010185558215620002ae579182015b82811115620002ad57825182559160200191906001019062000290565b5b509050620002bd9190620002cf565b5090565b610d0980620037d283390190565b5b80821115620002ea576000816000905550600101620002d0565b5090565b600060028204905060018216806200030757607f821691505b602082108114156200031e576200031d62000324565b5b50919050565b7f4e487b7100000000000000000000000000000000000000000000000000000000600052602260045260246000fd5b60805160601c6134596200037960003960008181610eee015261160601526134596000f3fe6080604052600436106101405760003560e01c8063755edd17116100b6578063c002d23d1161006f578063c002d23d1461044b578063c87b56dd14610476578063d547cfb7146104b3578063e2982c21146104de578063e985e9c51461051b578063f2fde38b1461055857610140565b8063755edd17146103485780638da5cb5b14610378578063902d55a5146103a357806395d89b41146103ce578063a22cb465146103f9578063b88d4fde1461042257610140565b806330176e131161010857806330176e131461023c57806331b3eb941461026557806342842e0e1461028e5780636352211e146102b757806370a08231146102f4578063715018a61461033157610140565b806301ffc9a71461014557806306fdde0314610182578063081812fc146101ad578063095ea7b3146101ea57806323b872dd14610213575b600080fd5b34801561015157600080fd5b5061016c60048036038101906101679190612371565b610581565b6040516101799190612851565b60405180910390f35b34801561018e57600080fd5b50610197610663565b6040516101a4919061286c565b60405180910390f35b3480156101b957600080fd5b506101d460048036038101906101cf9190612404565b6106f5565b6040516101e191906127cf565b60405180910390f35b3480156101f657600080fd5b50610211600480360381019061020c9190612335565b61077a565b005b34801561021f57600080fd5b5061023a6004803603810190610235919061222f565b610892565b005b34801561024857600080fd5b50610263600480360381019061025e91906123c3565b6108f2565b005b34801561027157600080fd5b5061028c600480360381019061028791906121ca565b61090c565b005b34801561029a57600080fd5b506102b560048036038101906102b0919061222f565b610994565b005b3480156102c357600080fd5b506102de60048036038101906102d99190612404565b6109b4565b6040516102eb91906127cf565b60405180910390f35b34801561030057600080fd5b5061031b600480360381019061031691906121a1565b610a66565b6040516103289190612ace565b60405180910390f35b34801561033d57600080fd5b50610346610b1e565b005b610362600480360381019061035d91906121a1565b610ba6565b60405161036f9190612ace565b60405180910390f35b34801561038457600080fd5b5061038d610c6f565b60405161039a91906127cf565b60405180910390f35b3480156103af57600080fd5b506103b8610c99565b6040516103c59190612ace565b60405180910390f35b3480156103da57600080fd5b506103e3610c9f565b6040516103f0919061286c565b60405180910390f35b34801561040557600080fd5b50610420600480360381019061041b91906122f9565b610d31565b005b34801561042e57600080fd5b506104496004803603810190610444919061227e565b610d47565b005b34801561045757600080fd5b50610460610da9565b60405161046d9190612ace565b60405180910390f35b34801561048257600080fd5b5061049d60048036038101906104989190612404565b610db5565b6040516104aa919061286c565b60405180910390f35b3480156104bf57600080fd5b506104c8610e5c565b6040516104d5919061286c565b60405180910390f35b3480156104ea57600080fd5b50610505600480360381019061050091906121a1565b610eea565b6040516105129190612ace565b60405180910390f35b34801561052757600080fd5b50610542600480360381019061053d91906121f3565b610f9c565b60405161054f9190612851565b60405180910390f35b34801561056457600080fd5b5061057f600480360381019061057a91906121a1565b611030565b005b60007f80ac58cd000000000000000000000000000000000000000000000000000000007bffffffffffffffffffffffffffffffffffffffffffffffffffffffff1916827bffffffffffffffffffffffffffffffffffffffffffffffffffffffff1916148061064c57507f5b5e139f000000000000000000000000000000000000000000000000000000007bffffffffffffffffffffffffffffffffffffffffffffffffffffffff1916827bffffffffffffffffffffffffffffffffffffffffffffffffffffffff1916145b8061065c575061065b82611128565b5b9050919050565b60606000805461067290612d36565b80601f016020809104026020016040519081016040528092919081815260200182805461069e90612d36565b80156106eb5780601f106106c0576101008083540402835291602001916106eb565b820191906000526020600020905b8154815290600101906020018083116106ce57829003601f168201915b5050505050905090565b600061070082611192565b61073f576040517f08c379a000000000000000000000000000000000000000000000000000000000815260040161073690612a0e565b60405180910390fd5b6004600083815260200190815260200160002060009054906101000a900473ffffffffffffffffffffffffffffffffffffffff169050919050565b6000610785826109b4565b90508073ffffffffffffffffffffffffffffffffffffffff168373ffffffffffffffffffffffffffffffffffffffff1614156107f6576040517f08c379a00000000000000000000000000000000000000000000000000000000081526004016107ed90612a6e565b60405180910390fd5b8073ffffffffffffffffffffffffffffffffffffffff166108156111fe565b73ffffffffffffffffffffffffffffffffffffffff16148061084457506108438161083e6111fe565b610f9c565b5b610883576040517f08c379a000000000000000000000000000000000000000000000000000000000815260040161087a9061298e565b60405180910390fd5b61088d8383611206565b505050565b6108a361089d6111fe565b826112bf565b6108e2576040517f08c379a00000000000000000000000000000000000000000000000000000000081526004016108d990612a8e565b60405180910390fd5b6108ed83838361139d565b505050565b8060089080519060200190610908929190611f9b565b5050565b6109146111fe565b73ffffffffffffffffffffffffffffffffffffffff16610932610c6f565b73ffffffffffffffffffffffffffffffffffffffff1614610988576040517f08c379a000000000000000000000000000000000000000000000000000000000815260040161097f90612a2e565b60405180910390fd5b61099181611604565b50565b6109af83838360405180602001604052806000815250610d47565b505050565b6000806002600084815260200190815260200160002060009054906101000a900473ffffffffffffffffffffffffffffffffffffffff169050600073ffffffffffffffffffffffffffffffffffffffff168173ffffffffffffffffffffffffffffffffffffffff161415610a5d576040517f08c379a0000000000000000000000000000000000000000000000000000000008152600401610a54906129ce565b60405180910390fd5b80915050919050565b60008073ffffffffffffffffffffffffffffffffffffffff168273ffffffffffffffffffffffffffffffffffffffff161415610ad7576040517f08c379a0000000000000000000000000000000000000000000000000000000008152600401610ace906129ae565b60405180910390fd5b600360008373ffffffffffffffffffffffffffffffffffffffff1673ffffffffffffffffffffffffffffffffffffffff168152602001908152602001600020549050919050565b610b266111fe565b73ffffffffffffffffffffffffffffffffffffffff16610b44610c6f565b73ffffffffffffffffffffffffffffffffffffffff1614610b9a576040517f08c379a0000000000000000000000000000000000000000000000000000000008152600401610b9190612a2e565b60405180910390fd5b610ba46000611692565b565b600080610bb36007611758565b90506127108111610bf9576040517f08c379a0000000000000000000000000000000000000000000000000000000008152600401610bf090612aae565b60405180910390fd5b67011c37937e0800003414610c43576040517f08c379a0000000000000000000000000000000000000000000000000000000008152600401610c3a9061290e565b60405180910390fd5b610c4d6007611766565b6000610c596007611758565b9050610c65848261177c565b8092505050919050565b6000600660009054906101000a900473ffffffffffffffffffffffffffffffffffffffff16905090565b61271081565b606060018054610cae90612d36565b80601f0160208091040260200160405190810160405280929190818152602001828054610cda90612d36565b8015610d275780601f10610cfc57610100808354040283529160200191610d27565b820191906000526020600020905b815481529060010190602001808311610d0a57829003601f168201915b5050505050905090565b610d43610d3c6111fe565b838361179a565b5050565b610d58610d526111fe565b836112bf565b610d97576040517f08c379a0000000000000000000000000000000000000000000000000000000008152600401610d8e90612a8e565b60405180910390fd5b610da384848484611907565b50505050565b67011c37937e08000081565b6060610dc082611192565b610dff576040517f08c379a0000000000000000000000000000000000000000000000000000000008152600401610df690612a4e565b60405180910390fd5b6000610e09611963565b90506000815111610e295760405180602001604052806000815250610e54565b80610e33846119f5565b604051602001610e449291906127ab565b6040516020818303038152906040525b915050919050565b60088054610e6990612d36565b80601f0160208091040260200160405190810160405280929190818152602001828054610e9590612d36565b8015610ee25780601f10610eb757610100808354040283529160200191610ee2565b820191906000526020600020905b815481529060010190602001808311610ec557829003601f168201915b505050505081565b60007f000000000000000000000000000000000000000000000000000000000000000073ffffffffffffffffffffffffffffffffffffffff1663e3a9db1a836040518263ffffffff1660e01b8152600401610f4591906127cf565b60206040518083038186803b158015610f5d57600080fd5b505afa158015610f71573d6000803e3d6000fd5b505050506040513d601f19601f82011682018060405250810190610f95919061242d565b9050919050565b6000600560008473ffffffffffffffffffffffffffffffffffffffff1673ffffffffffffffffffffffffffffffffffffffff16815260200190815260200160002060008373ffffffffffffffffffffffffffffffffffffffff1673ffffffffffffffffffffffffffffffffffffffff16815260200190815260200160002060009054906101000a900460ff16905092915050565b6110386111fe565b73ffffffffffffffffffffffffffffffffffffffff16611056610c6f565b73ffffffffffffffffffffffffffffffffffffffff16146110ac576040517f08c379a00000000000000000000000000000000000000000000000000000000081526004016110a390612a2e565b60405180910390fd5b600073ffffffffffffffffffffffffffffffffffffffff168173ffffffffffffffffffffffffffffffffffffffff16141561111c576040517f08c379a0000000000000000000000000000000000000000000000000000000008152600401611113906128ae565b60405180910390fd5b61112581611692565b50565b60007f01ffc9a7000000000000000000000000000000000000000000000000000000007bffffffffffffffffffffffffffffffffffffffffffffffffffffffff1916827bffffffffffffffffffffffffffffffffffffffffffffffffffffffff1916149050919050565b60008073ffffffffffffffffffffffffffffffffffffffff166002600084815260200190815260200160002060009054906101000a900473ffffffffffffffffffffffffffffffffffffffff1673ffffffffffffffffffffffffffffffffffffffff1614159050919050565b600033905090565b816004600083815260200190815260200160002060006101000a81548173ffffffffffffffffffffffffffffffffffffffff021916908373ffffffffffffffffffffffffffffffffffffffff160217905550808273ffffffffffffffffffffffffffffffffffffffff16611279836109b4565b73ffffffffffffffffffffffffffffffffffffffff167f8c5be1e5ebec7d5bd14f71427d1e84f3dd0314c0f7b2291e5b200ac8c7c3b92560405160405180910390a45050565b60006112ca82611192565b611309576040517f08c379a00000000000000000000000000000000000000000000000000000000081526004016113009061296e565b60405180910390fd5b6000611314836109b4565b90508073ffffffffffffffffffffffffffffffffffffffff168473ffffffffffffffffffffffffffffffffffffffff16148061138357508373ffffffffffffffffffffffffffffffffffffffff1661136b846106f5565b73ffffffffffffffffffffffffffffffffffffffff16145b8061139457506113938185610f9c565b5b91505092915050565b8273ffffffffffffffffffffffffffffffffffffffff166113bd826109b4565b73ffffffffffffffffffffffffffffffffffffffff1614611413576040517f08c379a000000000000000000000000000000000000000000000000000000000815260040161140a906128ce565b60405180910390fd5b600073ffffffffffffffffffffffffffffffffffffffff168273ffffffffffffffffffffffffffffffffffffffff161415611483576040517f08c379a000000000000000000000000000000000000000000000000000000000815260040161147a9061292e565b60405180910390fd5b61148e838383611ba2565b611499600082611206565b6001600360008573ffffffffffffffffffffffffffffffffffffffff1673ffffffffffffffffffffffffffffffffffffffff16815260200190815260200160002060008282546114e99190612c3a565b925050819055506001600360008473ffffffffffffffffffffffffffffffffffffffff1673ffffffffffffffffffffffffffffffffffffffff16815260200190815260200160002060008282546115409190612bb3565b92505081905550816002600083815260200190815260200160002060006101000a81548173ffffffffffffffffffffffffffffffffffffffff021916908373ffffffffffffffffffffffffffffffffffffffff160217905550808273ffffffffffffffffffffffffffffffffffffffff168473ffffffffffffffffffffffffffffffffffffffff167fddf252ad1be2c89b69c2b068fc378daa952ba7f163c4a11628f55a4df523b3ef60405160405180910390a46115ff838383611ba7565b505050565b7f000000000000000000000000000000000000000000000000000000000000000073ffffffffffffffffffffffffffffffffffffffff166351cff8d9826040518263ffffffff1660e01b815260040161165d91906127ea565b600060405180830381600087803b15801561167757600080fd5b505af115801561168b573d6000803e3d6000fd5b5050505050565b6000600660009054906101000a900473ffffffffffffffffffffffffffffffffffffffff16905081600660006101000a81548173ffffffffffffffffffffffffffffffffffffffff021916908373ffffffffffffffffffffffffffffffffffffffff1602179055508173ffffffffffffffffffffffffffffffffffffffff168173ffffffffffffffffffffffffffffffffffffffff167f8be0079c531659141344cd1fd0a4f28419497f9722a3daafe3b4186f6b6457e060405160405180910390a35050565b600081600001549050919050565b6001816000016000828254019250508190555050565b611796828260405180602001604052806000815250611bac565b5050565b8173ffffffffffffffffffffffffffffffffffffffff168373ffffffffffffffffffffffffffffffffffffffff161415611809576040517f08c379a00000000000000000000000000000000000000000000000000000000081526004016118009061294e565b60405180910390fd5b80600560008573ffffffffffffffffffffffffffffffffffffffff1673ffffffffffffffffffffffffffffffffffffffff16815260200190815260200160002060008473ffffffffffffffffffffffffffffffffffffffff1673ffffffffffffffffffffffffffffffffffffffff16815260200190815260200160002060006101000a81548160ff0219169083151502179055508173ffffffffffffffffffffffffffffffffffffffff168373ffffffffffffffffffffffffffffffffffffffff167f17307eab39ab6107e8899845ad3d59bd9653f200f220920489ca2b5937696c31836040516118fa9190612851565b60405180910390a3505050565b61191284848461139d565b61191e84848484611c07565b61195d576040517f08c379a00000000000000000000000000000000000000000000000000000000081526004016119549061288e565b60405180910390fd5b50505050565b60606008805461197290612d36565b80601f016020809104026020016040519081016040528092919081815260200182805461199e90612d36565b80156119eb5780601f106119c0576101008083540402835291602001916119eb565b820191906000526020600020905b8154815290600101906020018083116119ce57829003601f168201915b5050505050905090565b60606000821415611a3d576040518060400160405280600181526020017f30000000000000000000000000000000000000000000000000000000000000008152509050611b9d565b600082905060005b60008214611a6f578080611a5890612d99565b915050600a82611a689190612c09565b9150611a45565b60008167ffffffffffffffff811115611ab1577f4e487b7100000000000000000000000000000000000000000000000000000000600052604160045260246000fd5b6040519080825280601f01601f191660200182016040528015611ae35781602001600182028036833780820191505090505b5090505b60008514611b9657600182611afc9190612c3a565b9150600a85611b0b9190612de2565b6030611b179190612bb3565b60f81b818381518110611b53577f4e487b7100000000000000000000000000000000000000000000000000000000600052603260045260246000fd5b60200101907effffffffffffffffffffffffffffffffffffffffffffffffffffffffffffff1916908160001a905350600a85611b8f9190612c09565b9450611ae7565b8093505050505b919050565b505050565b505050565b611bb68383611d9e565b611bc36000848484611c07565b611c02576040517f08c379a0000000000000000000000000000000000000000000000000000000008152600401611bf99061288e565b60405180910390fd5b505050565b6000611c288473ffffffffffffffffffffffffffffffffffffffff16611f78565b15611d91578373ffffffffffffffffffffffffffffffffffffffff1663150b7a02611c516111fe565b8786866040518563ffffffff1660e01b8152600401611c739493929190612805565b602060405180830381600087803b158015611c8d57600080fd5b505af1925050508015611cbe57506040513d601f19601f82011682018060405250810190611cbb919061239a565b60015b611d41573d8060008114611cee576040519150601f19603f3d011682016040523d82523d6000602084013e611cf3565b606091505b50600081511415611d39576040517f08c379a0000000000000000000000000000000000000000000000000000000008152600401611d309061288e565b60405180910390fd5b805181602001fd5b63150b7a0260e01b7bffffffffffffffffffffffffffffffffffffffffffffffffffffffff1916817bffffffffffffffffffffffffffffffffffffffffffffffffffffffff191614915050611d96565b600190505b949350505050565b600073ffffffffffffffffffffffffffffffffffffffff168273ffffffffffffffffffffffffffffffffffffffff161415611e0e576040517f08c379a0000000000000000000000000000000000000000000000000000000008152600401611e05906129ee565b60405180910390fd5b611e1781611192565b15611e57576040517f08c379a0000000000000000000000000000000000000000000000000000000008152600401611e4e906128ee565b60405180910390fd5b611e6360008383611ba2565b6001600360008473ffffffffffffffffffffffffffffffffffffffff1673ffffffffffffffffffffffffffffffffffffffff1681526020019081526020016000206000828254611eb39190612bb3565b92505081905550816002600083815260200190815260200160002060006101000a81548173ffffffffffffffffffffffffffffffffffffffff021916908373ffffffffffffffffffffffffffffffffffffffff160217905550808273ffffffffffffffffffffffffffffffffffffffff16600073ffffffffffffffffffffffffffffffffffffffff167fddf252ad1be2c89b69c2b068fc378daa952ba7f163c4a11628f55a4df523b3ef60405160405180910390a4611f7460008383611ba7565b5050565b6000808273ffffffffffffffffffffffffffffffffffffffff163b119050919050565b828054611fa790612d36565b90600052602060002090601f016020900481019282611fc95760008555612010565b82601f10611fe257805160ff1916838001178555612010565b82800160010185558215612010579182015b8281111561200f578251825591602001919060010190611ff4565b5b50905061201d9190612021565b5090565b5b8082111561203a576000816000905550600101612022565b5090565b600061205161204c84612b0e565b612ae9565b90508281526020810184848401111561206957600080fd5b612074848285612cf4565b509392505050565b600061208f61208a84612b3f565b612ae9565b9050828152602081018484840111156120a757600080fd5b6120b2848285612cf4565b509392505050565b6000813590506120c9816133b0565b92915050565b6000813590506120de816133c7565b92915050565b6000813590506120f3816133de565b92915050565b600081359050612108816133f5565b92915050565b60008151905061211d816133f5565b92915050565b600082601f83011261213457600080fd5b813561214484826020860161203e565b91505092915050565b600082601f83011261215e57600080fd5b813561216e84826020860161207c565b91505092915050565b6000813590506121868161340c565b92915050565b60008151905061219b8161340c565b92915050565b6000602082840312156121b357600080fd5b60006121c1848285016120ba565b91505092915050565b6000602082840312156121dc57600080fd5b60006121ea848285016120cf565b91505092915050565b6000806040838503121561220657600080fd5b6000612214858286016120ba565b9250506020612225858286016120ba565b9150509250929050565b60008060006060848603121561224457600080fd5b6000612252868287016120ba565b9350506020612263868287016120ba565b925050604061227486828701612177565b9150509250925092565b6000806000806080858703121561229457600080fd5b60006122a2878288016120ba565b94505060206122b3878288016120ba565b93505060406122c487828801612177565b925050606085013567ffffffffffffffff8111156122e157600080fd5b6122ed87828801612123565b91505092959194509250565b6000806040838503121561230c57600080fd5b600061231a858286016120ba565b925050602061232b858286016120e4565b9150509250929050565b6000806040838503121561234857600080fd5b6000612356858286016120ba565b925050602061236785828601612177565b9150509250929050565b60006020828403121561238357600080fd5b6000612391848285016120f9565b91505092915050565b6000602082840312156123ac57600080fd5b60006123ba8482850161210e565b91505092915050565b6000602082840312156123d557600080fd5b600082013567ffffffffffffffff8111156123ef57600080fd5b6123fb8482850161214d565b91505092915050565b60006020828403121561241657600080fd5b600061242484828501612177565b91505092915050565b60006020828403121561243f57600080fd5b600061244d8482850161218c565b91505092915050565b61245f81612c80565b82525050565b61246e81612c6e565b82525050565b61247d81612c92565b82525050565b600061248e82612b70565b6124988185612b86565b93506124a8818560208601612d03565b6124b181612ecf565b840191505092915050565b60006124c782612b7b565b6124d18185612b97565b93506124e1818560208601612d03565b6124ea81612ecf565b840191505092915050565b600061250082612b7b565b61250a8185612ba8565b935061251a818560208601612d03565b80840191505092915050565b6000612533603283612b97565b915061253e82612ee0565b604082019050919050565b6000612556602683612b97565b915061256182612f2f565b604082019050919050565b6000612579602583612b97565b915061258482612f7e565b604082019050919050565b600061259c601c83612b97565b91506125a782612fcd565b602082019050919050565b60006125bf602d83612b97565b91506125ca82612ff6565b604082019050919050565b60006125e2602483612b97565b91506125ed82613045565b604082019050919050565b6000612605601983612b97565b915061261082613094565b602082019050919050565b6000612628602c83612b97565b9150612633826130bd565b604082019050919050565b600061264b603883612b97565b91506126568261310c565b604082019050919050565b600061266e602a83612b97565b91506126798261315b565b604082019050919050565b6000612691602983612b97565b915061269c826131aa565b604082019050919050565b60006126b4602083612b97565b91506126bf826131f9565b602082019050919050565b60006126d7602c83612b97565b91506126e282613222565b604082019050919050565b60006126fa602083612b97565b915061270582613271565b602082019050919050565b600061271d602f83612b97565b91506127288261329a565b604082019050919050565b6000612740602183612b97565b915061274b826132e9565b604082019050919050565b6000612763603183612b97565b915061276e82613338565b604082019050919050565b6000612786601283612b97565b915061279182613387565b602082019050919050565b6127a581612cea565b82525050565b60006127b782856124f5565b91506127c382846124f5565b91508190509392505050565b60006020820190506127e46000830184612465565b92915050565b60006020820190506127ff6000830184612456565b92915050565b600060808201905061281a6000830187612465565b6128276020830186612465565b612834604083018561279c565b81810360608301526128468184612483565b905095945050505050565b60006020820190506128666000830184612474565b92915050565b6000602082019050818103600083015261288681846124bc565b905092915050565b600060208201905081810360008301526128a781612526565b9050919050565b600060208201905081810360008301526128c781612549565b9050919050565b600060208201905081810360008301526128e78161256c565b9050919050565b600060208201905081810360008301526129078161258f565b9050919050565b60006020820190508181036000830152612927816125b2565b9050919050565b60006020820190508181036000830152612947816125d5565b9050919050565b60006020820190508181036000830152612967816125f8565b9050919050565b600060208201905081810360008301526129878161261b565b9050919050565b600060208201905081810360008301526129a78161263e565b9050919050565b600060208201905081810360008301526129c781612661565b9050919050565b600060208201905081810360008301526129e781612684565b9050919050565b60006020820190508181036000830152612a07816126a7565b9050919050565b60006020820190508181036000830152612a27816126ca565b9050919050565b60006020820190508181036000830152612a47816126ed565b9050919050565b60006020820190508181036000830152612a6781612710565b9050919050565b60006020820190508181036000830152612a8781612733565b9050919050565b60006020820190508181036000830152612aa781612756565b9050919050565b60006020820190508181036000830152612ac781612779565b9050919050565b6000602082019050612ae3600083018461279c565b92915050565b6000612af3612b04565b9050612aff8282612d68565b919050565b6000604051905090565b600067ffffffffffffffff821115612b2957612b28612ea0565b5b612b3282612ecf565b9050602081019050919050565b600067ffffffffffffffff821115612b5a57612b59612ea0565b5b612b6382612ecf565b9050602081019050919050565b600081519050919050565b600081519050919050565b600082825260208201905092915050565b600082825260208201905092915050565b600081905092915050565b6000612bbe82612cea565b9150612bc983612cea565b9250827fffffffffffffffffffffffffffffffffffffffffffffffffffffffffffffffff03821115612bfe57612bfd612e13565b5b828201905092915050565b6000612c1482612cea565b9150612c1f83612cea565b925082612c2f57612c2e612e42565b5b828204905092915050565b6000612c4582612cea565b9150612c5083612cea565b925082821015612c6357612c62612e13565b5b828203905092915050565b6000612c7982612cca565b9050919050565b6000612c8b82612cca565b9050919050565b60008115159050919050565b60007fffffffff0000000000000000000000000000000000000000000000000000000082169050919050565b600073ffffffffffffffffffffffffffffffffffffffff82169050919050565b6000819050919050565b82818337600083830152505050565b60005b83811015612d21578082015181840152602081019050612d06565b83811115612d30576000848401525b50505050565b60006002820490506001821680612d4e57607f821691505b60208210811415612d6257612d61612e71565b5b50919050565b612d7182612ecf565b810181811067ffffffffffffffff82111715612d9057612d8f612ea0565b5b80604052505050565b6000612da482612cea565b91507fffffffffffffffffffffffffffffffffffffffffffffffffffffffffffffffff821415612dd757612dd6612e13565b5b600182019050919050565b6000612ded82612cea565b9150612df883612cea565b925082612e0857612e07612e42565b5b828206905092915050565b7f4e487b7100000000000000000000000000000000000000000000000000000000600052601160045260246000fd5b7f4e487b7100000000000000000000000000000000000000000000000000000000600052601260045260246000fd5b7f4e487b7100000000000000000000000000000000000000000000000000000000600052602260045260246000fd5b7f4e487b7100000000000000000000000000000000000000000000000000000000600052604160045260246000fd5b6000601f19601f8301169050919050565b7f4552433732313a207472616e7366657220746f206e6f6e20455243373231526560008201527f63656976657220696d706c656d656e7465720000000000000000000000000000602082015250565b7f4f776e61626c653a206e6577206f776e657220697320746865207a65726f206160008201527f6464726573730000000000000000000000000000000000000000000000000000602082015250565b7f4552433732313a207472616e736665722066726f6d20696e636f72726563742060008201527f6f776e6572000000000000000000000000000000000000000000000000000000602082015250565b7f4552433732313a20746f6b656e20616c7265616479206d696e74656400000000600082015250565b7f5472616e736374696f6e2076616c756520646964206e6f7420657175616c207460008201527f6865206d696e7420707269636500000000000000000000000000000000000000602082015250565b7f4552433732313a207472616e7366657220746f20746865207a65726f2061646460008201527f7265737300000000000000000000000000000000000000000000000000000000602082015250565b7f4552433732313a20617070726f766520746f2063616c6c657200000000000000600082015250565b7f4552433732313a206f70657261746f7220717565727920666f72206e6f6e657860008201527f697374656e7420746f6b656e0000000000000000000000000000000000000000602082015250565b7f4552433732313a20617070726f76652063616c6c6572206973206e6f74206f7760008201527f6e6572206e6f7220617070726f76656420666f7220616c6c0000000000000000602082015250565b7f4552433732313a2062616c616e636520717565727920666f7220746865207a6560008201527f726f206164647265737300000000000000000000000000000000000000000000602082015250565b7f4552433732313a206f776e657220717565727920666f72206e6f6e657869737460008201527f656e7420746f6b656e0000000000000000000000000000000000000000000000602082015250565b7f4552433732313a206d696e7420746f20746865207a65726f2061646472657373600082015250565b7f4552433732313a20617070726f76656420717565727920666f72206e6f6e657860008201527f697374656e7420746f6b656e0000000000000000000000000000000000000000602082015250565b7f4f776e61626c653a2063616c6c6572206973206e6f7420746865206f776e6572600082015250565b7f4552433732314d657461646174613a2055524920717565727920666f72206e6f60008201527f6e6578697374656e7420746f6b656e0000000000000000000000000000000000602082015250565b7f4552433732313a20617070726f76616c20746f2063757272656e74206f776e6560008201527f7200000000000000000000000000000000000000000000000000000000000000602082015250565b7f4552433732313a207472616e736665722063616c6c6572206973206e6f74206f60008201527f776e6572206e6f7220617070726f766564000000000000000000000000000000602082015250565b7f4d617820737570706c7920726561636865640000000000000000000000000000600082015250565b6133b981612c6e565b81146133c457600080fd5b50565b6133d081612c80565b81146133db57600080fd5b50565b6133e781612c92565b81146133f257600080fd5b50565b6133fe81612c9e565b811461340957600080fd5b50565b61341581612cea565b811461342057600080fd5b5056fea2646970667358221220ce813bf996d3635d9ca4f9cabd557728caca3a1434694a04bf04ca2e4cb9040664736f6c63430008010033608060405234801561001057600080fd5b5061002d61002261003260201b60201c565b61003a60201b60201c565b6100fe565b600033905090565b60008060009054906101000a900473ffffffffffffffffffffffffffffffffffffffff169050816000806101000a81548173ffffffffffffffffffffffffffffffffffffffff021916908373ffffffffffffffffffffffffffffffffffffffff1602179055508173ffffffffffffffffffffffffffffffffffffffff168173ffffffffffffffffffffffffffffffffffffffff167f8be0079c531659141344cd1fd0a4f28419497f9722a3daafe3b4186f6b6457e060405160405180910390a35050565b610bfc8061010d6000396000f3fe6080604052600436106100555760003560e01c806351cff8d91461005a578063715018a6146100835780638da5cb5b1461009a578063e3a9db1a146100c5578063f2fde38b14610102578063f340fa011461012b575b600080fd5b34801561006657600080fd5b50610081600480360381019061007c91906107f5565b610147565b005b34801561008f57600080fd5b506100986102c7565b005b3480156100a657600080fd5b506100af61034f565b6040516100bc9190610900565b60405180910390f35b3480156100d157600080fd5b506100ec60048036038101906100e791906107cc565b610378565b6040516100f9919061099b565b60405180910390f35b34801561010e57600080fd5b50610129600480360381019061012491906107cc565b6103c1565b005b610145600480360381019061014091906107cc565b6104b9565b005b61014f6105e2565b73ffffffffffffffffffffffffffffffffffffffff1661016d61034f565b73ffffffffffffffffffffffffffffffffffffffff16146101c3576040517f08c379a00000000000000000000000000000000000000000000000000000000081526004016101ba9061097b565b60405180910390fd5b6000600160008373ffffffffffffffffffffffffffffffffffffffff1673ffffffffffffffffffffffffffffffffffffffff1681526020019081526020016000205490506000600160008473ffffffffffffffffffffffffffffffffffffffff1673ffffffffffffffffffffffffffffffffffffffff16815260200190815260200160002081905550610275818373ffffffffffffffffffffffffffffffffffffffff166105ea90919063ffffffff16565b8173ffffffffffffffffffffffffffffffffffffffff167f7084f5476618d8e60b11ef0d7d3f06914655adb8793e28ff7f018d4c76d505d5826040516102bb919061099b565b60405180910390a25050565b6102cf6105e2565b73ffffffffffffffffffffffffffffffffffffffff166102ed61034f565b73ffffffffffffffffffffffffffffffffffffffff1614610343576040517f08c379a000000000000000000000000000000000000000000000000000000000815260040161033a9061097b565b60405180910390fd5b61034d60006106de565b565b60008060009054906101000a900473ffffffffffffffffffffffffffffffffffffffff16905090565b6000600160008373ffffffffffffffffffffffffffffffffffffffff1673ffffffffffffffffffffffffffffffffffffffff168152602001908152602001600020549050919050565b6103c96105e2565b73ffffffffffffffffffffffffffffffffffffffff166103e761034f565b73ffffffffffffffffffffffffffffffffffffffff161461043d576040517f08c379a00000000000000000000000000000000000000000000000000000000081526004016104349061097b565b60405180910390fd5b600073ffffffffffffffffffffffffffffffffffffffff168173ffffffffffffffffffffffffffffffffffffffff1614156104ad576040517f08c379a00000000000000000000000000000000000000000000000000000000081526004016104a49061091b565b60405180910390fd5b6104b6816106de565b50565b6104c16105e2565b73ffffffffffffffffffffffffffffffffffffffff166104df61034f565b73ffffffffffffffffffffffffffffffffffffffff1614610535576040517f08c379a000000000000000000000000000000000000000000000000000000000815260040161052c9061097b565b60405180910390fd5b600034905080600160008473ffffffffffffffffffffffffffffffffffffffff1673ffffffffffffffffffffffffffffffffffffffff168152602001908152602001600020600082825461058991906109d2565b925050819055508173ffffffffffffffffffffffffffffffffffffffff167f2da466a7b24304f47e87fa2e1e5a81b9831ce54fec19055ce277ca2f39ba42c4826040516105d6919061099b565b60405180910390a25050565b600033905090565b8047101561062d576040517f08c379a00000000000000000000000000000000000000000000000000000000081526004016106249061095b565b60405180910390fd5b60008273ffffffffffffffffffffffffffffffffffffffff1682604051610653906108eb565b60006040518083038185875af1925050503d8060008114610690576040519150601f19603f3d011682016040523d82523d6000602084013e610695565b606091505b50509050806106d9576040517f08c379a00000000000000000000000000000000000000000000000000000000081526004016106d09061093b565b60405180910390fd5b505050565b60008060009054906101000a900473ffffffffffffffffffffffffffffffffffffffff169050816000806101000a81548173ffffffffffffffffffffffffffffffffffffffff021916908373ffffffffffffffffffffffffffffffffffffffff1602179055508173ffffffffffffffffffffffffffffffffffffffff168173ffffffffffffffffffffffffffffffffffffffff167f8be0079c531659141344cd1fd0a4f28419497f9722a3daafe3b4186f6b6457e060405160405180910390a35050565b6000813590506107b181610b98565b92915050565b6000813590506107c681610baf565b92915050565b6000602082840312156107de57600080fd5b60006107ec848285016107a2565b91505092915050565b60006020828403121561080757600080fd5b6000610815848285016107b7565b91505092915050565b61082781610a28565b82525050565b600061083a6026836109c1565b915061084582610aa5565b604082019050919050565b600061085d603a836109c1565b915061086882610af4565b604082019050919050565b6000610880601d836109c1565b915061088b82610b43565b602082019050919050565b60006108a36020836109c1565b91506108ae82610b6c565b602082019050919050565b60006108c66000836109b6565b91506108d182610b95565b600082019050919050565b6108e581610a6c565b82525050565b60006108f6826108b9565b9150819050919050565b6000602082019050610915600083018461081e565b92915050565b600060208201905081810360008301526109348161082d565b9050919050565b6000602082019050818103600083015261095481610850565b9050919050565b6000602082019050818103600083015261097481610873565b9050919050565b6000602082019050818103600083015261099481610896565b9050919050565b60006020820190506109b060008301846108dc565b92915050565b600081905092915050565b600082825260208201905092915050565b60006109dd82610a6c565b91506109e883610a6c565b9250827fffffffffffffffffffffffffffffffffffffffffffffffffffffffffffffffff03821115610a1d57610a1c610a76565b5b828201905092915050565b6000610a3382610a4c565b9050919050565b6000610a4582610a4c565b9050919050565b600073ffffffffffffffffffffffffffffffffffffffff82169050919050565b6000819050919050565b7f4e487b7100000000000000000000000000000000000000000000000000000000600052601160045260246000fd5b7f4f776e61626c653a206e6577206f776e657220697320746865207a65726f206160008201527f6464726573730000000000000000000000000000000000000000000000000000602082015250565b7f416464726573733a20756e61626c6520746f2073656e642076616c75652c207260008201527f6563697069656e74206d61792068617665207265766572746564000000000000602082015250565b7f416464726573733a20696e73756666696369656e742062616c616e6365000000600082015250565b7f4f776e61626c653a2063616c6c6572206973206e6f7420746865206f776e6572600082015250565b50565b610ba181610a28565b8114610bac57600080fd5b50565b610bb881610a3a565b8114610bc357600080fd5b5056fea264697066735822122073b307195fd92b28f2600edbbb914776573abe0392628b3f8a5ee2d6ab956cfa64736f6c63430008010033",
  "linkReferences": {},
  "deployedLinkReferences": {}
}