{
  "_format": "hh-sol-artifact-1",
  "contractName": "NFT",
  "sourceName": "contracts/NFT.sol",
  "abi": [
    {
      "inputs": [],
      "stateMutability": "nonpayable",
      "type": "constructor"
    },
    {
      "anonymous": false,
      "inputs": [
        {
          "indexed": true,
          "internalType": "address",
          "name": "owner",
          "type": "address"
        },
        {
          "indexed": true,
          "internalType": "address",
          "name": "approved",
          "type": "address"
        },
        {
          "indexed": true,
          "internalType": "uint256",
          "name": "tokenId",
          "type": "uint256"
        }
      ],
      "name": "Approval",
      "type": "event"
    },
    {
      "anonymous": false,
      "inputs": [
        {
          "indexed": true,
          "internalType": "address",
          "name": "owner",
          "type": "address"
        },
        {
          "indexed": true,
          "internalType": "address",
          "name": "operator",
          "type": "address"
        },
        {
          "indexed": false,
          "internalType": "bool",
          "name": "approved",
          "type": "bool"
        }
      ],
      "name": "ApprovalForAll",
      "type": "event"
    },
    {
      "anonymous": false,
      "inputs": [
        {
          "indexed": true,
          "internalType": "address",
          "name": "previousOwner",
          "type": "address"
        },
        {
          "indexed": true,
          "internalType": "address",
          "name": "newOwner",
          "type": "address"
        }
      ],
      "name": "OwnershipTransferred",
      "type": "event"
    },
    {
      "anonymous": false,
      "inputs": [
        {
          "indexed": true,
          "internalType": "address",
          "name": "from",
          "type": "address"
        },
        {
          "indexed": true,
          "internalType": "address",
          "name": "to",
          "type": "address"
        },
        {
          "indexed": true,
          "internalType": "uint256",
          "name": "tokenId",
          "type": "uint256"
        }
      ],
      "name": "Transfer",
      "type": "event"
    },
    {
      "inputs": [],
      "name": "MINT_PRICE",
      "outputs": [
        {
          "internalType": "uint256",
          "name": "",
          "type": "uint256"
        }
      ],
      "stateMutability": "view",
      "type": "function"
    },
    {
      "inputs": [],
      "name": "TOTAL_SUPPLY",
      "outputs": [
        {
          "internalType": "uint256",
          "name": "",
          "type": "uint256"
        }
      ],
      "stateMutability": "view",
      "type": "function"
    },
    {
      "inputs": [
        {
          "internalType": "address",
          "name": "to",
          "type": "address"
        },
        {
          "internalType": "uint256",
          "name": "tokenId",
          "type": "uint256"
        }
      ],
      "name": "approve",
      "outputs": [],
      "stateMutability": "nonpayable",
      "type": "function"
    },
    {
      "inputs": [
        {
          "internalType": "address",
          "name": "owner",
          "type": "address"
        }
      ],
      "name": "balanceOf",
      "outputs": [
        {
          "internalType": "uint256",
          "name": "",
          "type": "uint256"
        }
      ],
      "stateMutability": "view",
      "type": "function"
    },
    {
      "inputs": [],
      "name": "baseTokenURI",
      "outputs": [
        {
          "internalType": "string",
          "name": "",
          "type": "string"
        }
      ],
      "stateMutability": "view",
      "type": "function"
    },
    {
      "inputs": [
        {
          "internalType": "uint256",
          "name": "tokenId",
          "type": "uint256"
        }
      ],
      "name": "getApproved",
      "outputs": [
        {
          "internalType": "address",
          "name": "",
          "type": "address"
        }
      ],
      "stateMutability": "view",
      "type": "function"
    },
    {
      "inputs": [
        {
          "internalType": "address",
          "name": "owner",
          "type": "address"
        },
        {
          "internalType": "address",
          "name": "operator",
          "type": "address"
        }
      ],
      "name": "isApprovedForAll",
      "outputs": [
        {
          "internalType": "bool",
          "name": "",
          "type": "bool"
        }
      ],
      "stateMutability": "view",
      "type": "function"
    },
    {
      "inputs": [
        {
          "internalType": "address",
          "name": "recipient",
          "type": "address"
        }
      ],
      "name": "mintTo",
      "outputs": [
        {
          "internalType": "uint256",
          "name": "",
          "type": "uint256"
        }
      ],
      "stateMutability": "payable",
      "type": "function"
    },
    {
      "inputs": [],
      "name": "name",
      "outputs": [
        {
          "internalType": "string",
          "name": "",
          "type": "string"
        }
      ],
      "stateMutability": "view",
      "type": "function"
    },
    {
      "inputs": [],
      "name": "owner",
      "outputs": [
        {
          "internalType": "address",
          "name": "",
          "type": "address"
        }
      ],
      "stateMutability": "view",
      "type": "function"
    },
    {
      "inputs": [
        {
          "internalType": "uint256",
          "name": "tokenId",
          "type": "uint256"
        }
      ],
      "name": "ownerOf",
      "outputs": [
        {
          "internalType": "address",
          "name": "",
          "type": "address"
        }
      ],
      "stateMutability": "view",
      "type": "function"
    },
    {
      "inputs": [
        {
          "internalType": "address",
          "name": "dest",
          "type": "address"
        }
      ],
      "name": "payments",
      "outputs": [
        {
          "internalType": "uint256",
          "name": "",
          "type": "uint256"
        }
      ],
      "stateMutability": "view",
      "type": "function"
    },
    {
      "inputs": [],
      "name": "renounceOwnership",
      "outputs": [],
      "stateMutability": "nonpayable",
      "type": "function"
    },
    {
      "inputs": [
        {
          "internalType": "address",
          "name": "from",
          "type": "address"
        },
        {
          "internalType": "address",
          "name": "to",
          "type": "address"
        },
        {
          "internalType": "uint256",
          "name": "tokenId",
          "type": "uint256"
        }
      ],
      "name": "safeTransferFrom",
      "outputs": [],
      "stateMutability": "nonpayable",
      "type": "function"
    },
    {
      "inputs": [
        {
          "internalType": "address",
          "name": "from",
          "type": "address"
        },
        {
          "internalType": "address",
          "name": "to",
          "type": "address"
        },
        {
          "internalType": "uint256",
          "name": "tokenId",
          "type": "uint256"
        },
        {
          "internalType": "bytes",
          "name": "_data",
          "type": "bytes"
        }
      ],
      "name": "safeTransferFrom",
      "outputs": [],
      "stateMutability": "nonpayable",
      "type": "function"
    },
    {
      "inputs": [
        {
          "internalType": "address",
          "name": "operator",
          "type": "address"
        },
        {
          "internalType": "bool",
          "name": "approved",
          "type": "bool"
        }
      ],
      "name": "setApprovalForAll",
      "outputs": [],
      "stateMutability": "nonpayable",
      "type": "function"
    },
    {
      "inputs": [
        {
          "internalType": "string",
          "name": "_baseTokenURI",
          "type": "string"
        }
      ],
      "name": "setBaseTokenURI",
      "outputs": [],
      "stateMutability": "nonpayable",
      "type": "function"
    },
    {
      "inputs": [
        {
          "internalType": "bytes4",
          "name": "interfaceId",
          "type": "bytes4"
        }
      ],
      "name": "supportsInterface",
      "outputs": [
        {
          "internalType": "bool",
          "name": "",
          "type": "bool"
        }
      ],
      "stateMutability": "view",
      "type": "function"
    },
    {
      "inputs": [],
      "name": "symbol",
      "outputs": [
        {
          "internalType": "string",
          "name": "",
          "type": "string"
        }
      ],
      "stateMutability": "view",
      "type": "function"
    },
    {
      "inputs": [
        {
          "internalType": "uint256",
          "name": "tokenId",
          "type": "uint256"
        }
      ],
      "name": "tokenURI",
      "outputs": [
        {
          "internalType": "string",
          "name": "",
          "type": "string"
        }
      ],
      "stateMutability": "view",
      "type": "function"
    },
    {
      "inputs": [
        {
          "internalType": "address",
          "name": "from",
          "type": "address"
        },
        {
          "internalType": "address",
          "name": "to",
          "type": "address"
        },
        {
          "internalType": "uint256",
          "name": "tokenId",
          "type": "uint256"
        }
      ],
      "name": "transferFrom",
      "outputs": [],
      "stateMutability": "nonpayable",
      "type": "function"
    },
    {
      "inputs": [
        {
          "internalType": "address",
          "name": "newOwner",
          "type": "address"
        }
      ],
      "name": "transferOwnership",
      "outputs": [],
      "stateMutability": "nonpayable",
      "type": "function"
    },
    {
      "inputs": [
        {
          "internalType": "address payable",
          "name": "payee",
          "type": "address"
        }
      ],
      "name": "withdrawPayments",
      "outputs": [],
      "stateMutability": "nonpayable",
      "type": "function"
    }
  ],
  "bytecode": "0x60a06040523480156200001157600080fd5b506040518060400160405280600581526020017f4e465420310000000000000000000000000000000000000000000000000000008152506040518060400160405280600381526020017f4e4654000000000000000000000000000000000000000000000000000000000081525081600090805190602001906200009692919062000230565b508060019080519060200190620000af92919062000230565b505050604051620000c090620002c1565b604051809103906000f080158015620000dd573d6000803e3d6000fd5b5073ffffffffffffffffffffffffffffffffffffffff1660808173ffffffffffffffffffffffffffffffffffffffff1660601b8152505062000134620001286200016260201b60201c565b6200016a60201b60201c565b60405180602001604052806000815250600890805190602001906200015b92919062000230565b5062000353565b600033905090565b6000600660009054906101000a900473ffffffffffffffffffffffffffffffffffffffff16905081600660006101000a81548173ffffffffffffffffffffffffffffffffffffffff021916908373ffffffffffffffffffffffffffffffffffffffff1602179055508173ffffffffffffffffffffffffffffffffffffffff168173ffffffffffffffffffffffffffffffffffffffff167f8be0079c531659141344cd1fd0a4f28419497f9722a3daafe3b4186f6b6457e060405160405180910390a35050565b8280546200023e90620002ee565b90600052602060002090601f016020900481019282620002625760008555620002ae565b82601f106200027d57805160ff1916838001178555620002ae565b82800160010185558215620002ae579182015b82811115620002ad57825182559160200191906001019062000290565b5b509050620002bd9190620002cf565b5090565b610d09806200384c83390190565b5b80821115620002ea576000816000905550600101620002d0565b5090565b600060028204905060018216806200030757607f821691505b602082108114156200031e576200031d62000324565b5b50919050565b7f4e487b7100000000000000000000000000000000000000000000000000000000600052602260045260246000fd5b60805160601c6134d36200037960003960008181610f68015261168001526134d36000f3fe6080604052600436106101405760003560e01c8063755edd17116100b6578063c002d23d1161006f578063c002d23d1461044b578063c87b56dd14610476578063d547cfb7146104b3578063e2982c21146104de578063e985e9c51461051b578063f2fde38b1461055857610140565b8063755edd17146103485780638da5cb5b14610378578063902d55a5146103a357806395d89b41146103ce578063a22cb465146103f9578063b88d4fde1461042257610140565b806330176e131161010857806330176e131461023c57806331b3eb941461026557806342842e0e1461028e5780636352211e146102b757806370a08231146102f4578063715018a61461033157610140565b806301ffc9a71461014557806306fdde0314610182578063081812fc146101ad578063095ea7b3146101ea57806323b872dd14610213575b600080fd5b34801561015157600080fd5b5061016c600480360381019061016791906123eb565b610581565b60405161017991906128cb565b60405180910390f35b34801561018e57600080fd5b50610197610663565b6040516101a491906128e6565b60405180910390f35b3480156101b957600080fd5b506101d460048036038101906101cf919061247e565b6106f5565b6040516101e19190612849565b60405180910390f35b3480156101f657600080fd5b50610211600480360381019061020c91906123af565b61077a565b005b34801561021f57600080fd5b5061023a600480360381019061023591906122a9565b610892565b005b34801561024857600080fd5b50610263600480360381019061025e919061243d565b6108f2565b005b34801561027157600080fd5b5061028c60048036038101906102879190612244565b610988565b005b34801561029a57600080fd5b506102b560048036038101906102b091906122a9565b610a10565b005b3480156102c357600080fd5b506102de60048036038101906102d9919061247e565b610a30565b6040516102eb9190612849565b60405180910390f35b34801561030057600080fd5b5061031b6004803603810190610316919061221b565b610ae2565b6040516103289190612b48565b60405180910390f35b34801561033d57600080fd5b50610346610b9a565b005b610362600480360381019061035d919061221b565b610c22565b60405161036f9190612b48565b60405180910390f35b34801561038457600080fd5b5061038d610cea565b60405161039a9190612849565b60405180910390f35b3480156103af57600080fd5b506103b8610d14565b6040516103c59190612b48565b60405180910390f35b3480156103da57600080fd5b506103e3610d1a565b6040516103f091906128e6565b60405180910390f35b34801561040557600080fd5b50610420600480360381019061041b9190612373565b610dac565b005b34801561042e57600080fd5b50610449600480360381019061044491906122f8565b610dc2565b005b34801561045757600080fd5b50610460610e24565b60405161046d9190612b48565b60405180910390f35b34801561048257600080fd5b5061049d6004803603810190610498919061247e565b610e2f565b6040516104aa91906128e6565b60405180910390f35b3480156104bf57600080fd5b506104c8610ed6565b6040516104d591906128e6565b60405180910390f35b3480156104ea57600080fd5b506105056004803603810190610500919061221b565b610f64565b6040516105129190612b48565b60405180910390f35b34801561052757600080fd5b50610542600480360381019061053d919061226d565b611016565b60405161054f91906128cb565b60405180910390f35b34801561056457600080fd5b5061057f600480360381019061057a919061221b565b6110aa565b005b60007f80ac58cd000000000000000000000000000000000000000000000000000000007bffffffffffffffffffffffffffffffffffffffffffffffffffffffff1916827bffffffffffffffffffffffffffffffffffffffffffffffffffffffff1916148061064c57507f5b5e139f000000000000000000000000000000000000000000000000000000007bffffffffffffffffffffffffffffffffffffffffffffffffffffffff1916827bffffffffffffffffffffffffffffffffffffffffffffffffffffffff1916145b8061065c575061065b826111a2565b5b9050919050565b60606000805461067290612db0565b80601f016020809104026020016040519081016040528092919081815260200182805461069e90612db0565b80156106eb5780601f106106c0576101008083540402835291602001916106eb565b820191906000526020600020905b8154815290600101906020018083116106ce57829003601f168201915b5050505050905090565b60006107008261120c565b61073f576040517f08c379a000000000000000000000000000000000000000000000000000000000815260040161073690612a88565b60405180910390fd5b6004600083815260200190815260200160002060009054906101000a900473ffffffffffffffffffffffffffffffffffffffff169050919050565b600061078582610a30565b90508073ffffffffffffffffffffffffffffffffffffffff168373ffffffffffffffffffffffffffffffffffffffff1614156107f6576040517f08c379a00000000000000000000000000000000000000000000000000000000081526004016107ed90612ae8565b60405180910390fd5b8073ffffffffffffffffffffffffffffffffffffffff16610815611278565b73ffffffffffffffffffffffffffffffffffffffff16148061084457506108438161083e611278565b611016565b5b610883576040517f08c379a000000000000000000000000000000000000000000000000000000000815260040161087a90612a08565b60405180910390fd5b61088d8383611280565b505050565b6108a361089d611278565b82611339565b6108e2576040517f08c379a00000000000000000000000000000000000000000000000000000000081526004016108d990612b08565b60405180910390fd5b6108ed838383611417565b505050565b6108fa611278565b73ffffffffffffffffffffffffffffffffffffffff16610918610cea565b73ffffffffffffffffffffffffffffffffffffffff161461096e576040517f08c379a000000000000000000000000000000000000000000000000000000000815260040161096590612aa8565b60405180910390fd5b8060089080519060200190610984929190612015565b5050565b610990611278565b73ffffffffffffffffffffffffffffffffffffffff166109ae610cea565b73ffffffffffffffffffffffffffffffffffffffff1614610a04576040517f08c379a00000000000000000000000000000000000000000000000000000000081526004016109fb90612aa8565b60405180910390fd5b610a0d8161167e565b50565b610a2b83838360405180602001604052806000815250610dc2565b505050565b6000806002600084815260200190815260200160002060009054906101000a900473ffffffffffffffffffffffffffffffffffffffff169050600073ffffffffffffffffffffffffffffffffffffffff168173ffffffffffffffffffffffffffffffffffffffff161415610ad9576040517f08c379a0000000000000000000000000000000000000000000000000000000008152600401610ad090612a48565b60405180910390fd5b80915050919050565b60008073ffffffffffffffffffffffffffffffffffffffff168273ffffffffffffffffffffffffffffffffffffffff161415610b53576040517f08c379a0000000000000000000000000000000000000000000000000000000008152600401610b4a90612a28565b60405180910390fd5b600360008373ffffffffffffffffffffffffffffffffffffffff1673ffffffffffffffffffffffffffffffffffffffff168152602001908152602001600020549050919050565b610ba2611278565b73ffffffffffffffffffffffffffffffffffffffff16610bc0610cea565b73ffffffffffffffffffffffffffffffffffffffff1614610c16576040517f08c379a0000000000000000000000000000000000000000000000000000000008152600401610c0d90612aa8565b60405180910390fd5b610c20600061170c565b565b600080610c2f60076117d2565b90506127108110610c75576040517f08c379a0000000000000000000000000000000000000000000000000000000008152600401610c6c90612b28565b60405180910390fd5b662386f26fc100003414610cbe576040517f08c379a0000000000000000000000000000000000000000000000000000000008152600401610cb5906129c8565b60405180910390fd5b610cc860076117e0565b6000610cd460076117d2565b9050610ce084826117f6565b8092505050919050565b6000600660009054906101000a900473ffffffffffffffffffffffffffffffffffffffff16905090565b61271081565b606060018054610d2990612db0565b80601f0160208091040260200160405190810160405280929190818152602001828054610d5590612db0565b8015610da25780601f10610d7757610100808354040283529160200191610da2565b820191906000526020600020905b815481529060010190602001808311610d8557829003601f168201915b5050505050905090565b610dbe610db7611278565b8383611814565b5050565b610dd3610dcd611278565b83611339565b610e12576040517f08c379a0000000000000000000000000000000000000000000000000000000008152600401610e0990612b08565b60405180910390fd5b610e1e84848484611981565b50505050565b662386f26fc1000081565b6060610e3a8261120c565b610e79576040517f08c379a0000000000000000000000000000000000000000000000000000000008152600401610e7090612ac8565b60405180910390fd5b6000610e836119dd565b90506000815111610ea35760405180602001604052806000815250610ece565b80610ead84611a6f565b604051602001610ebe929190612825565b6040516020818303038152906040525b915050919050565b60088054610ee390612db0565b80601f0160208091040260200160405190810160405280929190818152602001828054610f0f90612db0565b8015610f5c5780601f10610f3157610100808354040283529160200191610f5c565b820191906000526020600020905b815481529060010190602001808311610f3f57829003601f168201915b505050505081565b60007f000000000000000000000000000000000000000000000000000000000000000073ffffffffffffffffffffffffffffffffffffffff1663e3a9db1a836040518263ffffffff1660e01b8152600401610fbf9190612849565b60206040518083038186803b158015610fd757600080fd5b505afa158015610feb573d6000803e3d6000fd5b505050506040513d601f19601f8201168201806040525081019061100f91906124a7565b9050919050565b6000600560008473ffffffffffffffffffffffffffffffffffffffff1673ffffffffffffffffffffffffffffffffffffffff16815260200190815260200160002060008373ffffffffffffffffffffffffffffffffffffffff1673ffffffffffffffffffffffffffffffffffffffff16815260200190815260200160002060009054906101000a900460ff16905092915050565b6110b2611278565b73ffffffffffffffffffffffffffffffffffffffff166110d0610cea565b73ffffffffffffffffffffffffffffffffffffffff1614611126576040517f08c379a000000000000000000000000000000000000000000000000000000000815260040161111d90612aa8565b60405180910390fd5b600073ffffffffffffffffffffffffffffffffffffffff168173ffffffffffffffffffffffffffffffffffffffff161415611196576040517f08c379a000000000000000000000000000000000000000000000000000000000815260040161118d90612928565b60405180910390fd5b61119f8161170c565b50565b60007f01ffc9a7000000000000000000000000000000000000000000000000000000007bffffffffffffffffffffffffffffffffffffffffffffffffffffffff1916827bffffffffffffffffffffffffffffffffffffffffffffffffffffffff1916149050919050565b60008073ffffffffffffffffffffffffffffffffffffffff166002600084815260200190815260200160002060009054906101000a900473ffffffffffffffffffffffffffffffffffffffff1673ffffffffffffffffffffffffffffffffffffffff1614159050919050565b600033905090565b816004600083815260200190815260200160002060006101000a81548173ffffffffffffffffffffffffffffffffffffffff021916908373ffffffffffffffffffffffffffffffffffffffff160217905550808273ffffffffffffffffffffffffffffffffffffffff166112f383610a30565b73ffffffffffffffffffffffffffffffffffffffff167f8c5be1e5ebec7d5bd14f71427d1e84f3dd0314c0f7b2291e5b200ac8c7c3b92560405160405180910390a45050565b60006113448261120c565b611383576040517f08c379a000000000000000000000000000000000000000000000000000000000815260040161137a906129e8565b60405180910390fd5b600061138e83610a30565b90508073ffffffffffffffffffffffffffffffffffffffff168473ffffffffffffffffffffffffffffffffffffffff1614806113fd57508373ffffffffffffffffffffffffffffffffffffffff166113e5846106f5565b73ffffffffffffffffffffffffffffffffffffffff16145b8061140e575061140d8185611016565b5b91505092915050565b8273ffffffffffffffffffffffffffffffffffffffff1661143782610a30565b73ffffffffffffffffffffffffffffffffffffffff161461148d576040517f08c379a000000000000000000000000000000000000000000000000000000000815260040161148490612948565b60405180910390fd5b600073ffffffffffffffffffffffffffffffffffffffff168273ffffffffffffffffffffffffffffffffffffffff1614156114fd576040517f08c379a00000000000000000000000000000000000000000000000000000000081526004016114f490612988565b60405180910390fd5b611508838383611c1c565b611513600082611280565b6001600360008573ffffffffffffffffffffffffffffffffffffffff1673ffffffffffffffffffffffffffffffffffffffff16815260200190815260200160002060008282546115639190612cb4565b925050819055506001600360008473ffffffffffffffffffffffffffffffffffffffff1673ffffffffffffffffffffffffffffffffffffffff16815260200190815260200160002060008282546115ba9190612c2d565b92505081905550816002600083815260200190815260200160002060006101000a81548173ffffffffffffffffffffffffffffffffffffffff021916908373ffffffffffffffffffffffffffffffffffffffff160217905550808273ffffffffffffffffffffffffffffffffffffffff168473ffffffffffffffffffffffffffffffffffffffff167fddf252ad1be2c89b69c2b068fc378daa952ba7f163c4a11628f55a4df523b3ef60405160405180910390a4611679838383611c21565b505050565b7f000000000000000000000000000000000000000000000000000000000000000073ffffffffffffffffffffffffffffffffffffffff166351cff8d9826040518263ffffffff1660e01b81526004016116d79190612864565b600060405180830381600087803b1580156116f157600080fd5b505af1158015611705573d6000803e3d6000fd5b5050505050565b6000600660009054906101000a900473ffffffffffffffffffffffffffffffffffffffff16905081600660006101000a81548173ffffffffffffffffffffffffffffffffffffffff021916908373ffffffffffffffffffffffffffffffffffffffff1602179055508173ffffffffffffffffffffffffffffffffffffffff168173ffffffffffffffffffffffffffffffffffffffff167f8be0079c531659141344cd1fd0a4f28419497f9722a3daafe3b4186f6b6457e060405160405180910390a35050565b600081600001549050919050565b6001816000016000828254019250508190555050565b611810828260405180602001604052806000815250611c26565b5050565b8173ffffffffffffffffffffffffffffffffffffffff168373ffffffffffffffffffffffffffffffffffffffff161415611883576040517f08c379a000000000000000000000000000000000000000000000000000000000815260040161187a906129a8565b60405180910390fd5b80600560008573ffffffffffffffffffffffffffffffffffffffff1673ffffffffffffffffffffffffffffffffffffffff16815260200190815260200160002060008473ffffffffffffffffffffffffffffffffffffffff1673ffffffffffffffffffffffffffffffffffffffff16815260200190815260200160002060006101000a81548160ff0219169083151502179055508173ffffffffffffffffffffffffffffffffffffffff168373ffffffffffffffffffffffffffffffffffffffff167f17307eab39ab6107e8899845ad3d59bd9653f200f220920489ca2b5937696c318360405161197491906128cb565b60405180910390a3505050565b61198c848484611417565b61199884848484611c81565b6119d7576040517f08c379a00000000000000000000000000000000000000000000000000000000081526004016119ce90612908565b60405180910390fd5b50505050565b6060600880546119ec90612db0565b80601f0160208091040260200160405190810160405280929190818152602001828054611a1890612db0565b8015611a655780601f10611a3a57610100808354040283529160200191611a65565b820191906000526020600020905b815481529060010190602001808311611a4857829003601f168201915b5050505050905090565b60606000821415611ab7576040518060400160405280600181526020017f30000000000000000000000000000000000000000000000000000000000000008152509050611c17565b600082905060005b60008214611ae9578080611ad290612e13565b915050600a82611ae29190612c83565b9150611abf565b60008167ffffffffffffffff811115611b2b577f4e487b7100000000000000000000000000000000000000000000000000000000600052604160045260246000fd5b6040519080825280601f01601f191660200182016040528015611b5d5781602001600182028036833780820191505090505b5090505b60008514611c1057600182611b769190612cb4565b9150600a85611b859190612e5c565b6030611b919190612c2d565b60f81b818381518110611bcd577f4e487b7100000000000000000000000000000000000000000000000000000000600052603260045260246000fd5b60200101907effffffffffffffffffffffffffffffffffffffffffffffffffffffffffffff1916908160001a905350600a85611c099190612c83565b9450611b61565b8093505050505b919050565b505050565b505050565b611c308383611e18565b611c3d6000848484611c81565b611c7c576040517f08c379a0000000000000000000000000000000000000000000000000000000008152600401611c7390612908565b60405180910390fd5b505050565b6000611ca28473ffffffffffffffffffffffffffffffffffffffff16611ff2565b15611e0b578373ffffffffffffffffffffffffffffffffffffffff1663150b7a02611ccb611278565b8786866040518563ffffffff1660e01b8152600401611ced949392919061287f565b602060405180830381600087803b158015611d0757600080fd5b505af1925050508015611d3857506040513d601f19601f82011682018060405250810190611d359190612414565b60015b611dbb573d8060008114611d68576040519150601f19603f3d011682016040523d82523d6000602084013e611d6d565b606091505b50600081511415611db3576040517f08c379a0000000000000000000000000000000000000000000000000000000008152600401611daa90612908565b60405180910390fd5b805181602001fd5b63150b7a0260e01b7bffffffffffffffffffffffffffffffffffffffffffffffffffffffff1916817bffffffffffffffffffffffffffffffffffffffffffffffffffffffff191614915050611e10565b600190505b949350505050565b600073ffffffffffffffffffffffffffffffffffffffff168273ffffffffffffffffffffffffffffffffffffffff161415611e88576040517f08c379a0000000000000000000000000000000000000000000000000000000008152600401611e7f90612a68565b60405180910390fd5b611e918161120c565b15611ed1576040517f08c379a0000000000000000000000000000000000000000000000000000000008152600401611ec890612968565b60405180910390fd5b611edd60008383611c1c565b6001600360008473ffffffffffffffffffffffffffffffffffffffff1673ffffffffffffffffffffffffffffffffffffffff1681526020019081526020016000206000828254611f2d9190612c2d565b92505081905550816002600083815260200190815260200160002060006101000a81548173ffffffffffffffffffffffffffffffffffffffff021916908373ffffffffffffffffffffffffffffffffffffffff160217905550808273ffffffffffffffffffffffffffffffffffffffff16600073ffffffffffffffffffffffffffffffffffffffff167fddf252ad1be2c89b69c2b068fc378daa952ba7f163c4a11628f55a4df523b3ef60405160405180910390a4611fee60008383611c21565b5050565b6000808273ffffffffffffffffffffffffffffffffffffffff163b119050919050565b82805461202190612db0565b90600052602060002090601f016020900481019282612043576000855561208a565b82601f1061205c57805160ff191683800117855561208a565b8280016001018555821561208a579182015b8281111561208957825182559160200191906001019061206e565b5b509050612097919061209b565b5090565b5b808211156120b457600081600090555060010161209c565b5090565b60006120cb6120c684612b88565b612b63565b9050828152602081018484840111156120e357600080fd5b6120ee848285612d6e565b509392505050565b600061210961210484612bb9565b612b63565b90508281526020810184848401111561212157600080fd5b61212c848285612d6e565b509392505050565b6000813590506121438161342a565b92915050565b60008135905061215881613441565b92915050565b60008135905061216d81613458565b92915050565b6000813590506121828161346f565b92915050565b6000815190506121978161346f565b92915050565b600082601f8301126121ae57600080fd5b81356121be8482602086016120b8565b91505092915050565b600082601f8301126121d857600080fd5b81356121e88482602086016120f6565b91505092915050565b60008135905061220081613486565b92915050565b60008151905061221581613486565b92915050565b60006020828403121561222d57600080fd5b600061223b84828501612134565b91505092915050565b60006020828403121561225657600080fd5b600061226484828501612149565b91505092915050565b6000806040838503121561228057600080fd5b600061228e85828601612134565b925050602061229f85828601612134565b9150509250929050565b6000806000606084860312156122be57600080fd5b60006122cc86828701612134565b93505060206122dd86828701612134565b92505060406122ee868287016121f1565b9150509250925092565b6000806000806080858703121561230e57600080fd5b600061231c87828801612134565b945050602061232d87828801612134565b935050604061233e878288016121f1565b925050606085013567ffffffffffffffff81111561235b57600080fd5b6123678782880161219d565b91505092959194509250565b6000806040838503121561238657600080fd5b600061239485828601612134565b92505060206123a58582860161215e565b9150509250929050565b600080604083850312156123c257600080fd5b60006123d085828601612134565b92505060206123e1858286016121f1565b9150509250929050565b6000602082840312156123fd57600080fd5b600061240b84828501612173565b91505092915050565b60006020828403121561242657600080fd5b600061243484828501612188565b91505092915050565b60006020828403121561244f57600080fd5b600082013567ffffffffffffffff81111561246957600080fd5b612475848285016121c7565b91505092915050565b60006020828403121561249057600080fd5b600061249e848285016121f1565b91505092915050565b6000602082840312156124b957600080fd5b60006124c784828501612206565b91505092915050565b6124d981612cfa565b82525050565b6124e881612ce8565b82525050565b6124f781612d0c565b82525050565b600061250882612bea565b6125128185612c00565b9350612522818560208601612d7d565b61252b81612f49565b840191505092915050565b600061254182612bf5565b61254b8185612c11565b935061255b818560208601612d7d565b61256481612f49565b840191505092915050565b600061257a82612bf5565b6125848185612c22565b9350612594818560208601612d7d565b80840191505092915050565b60006125ad603283612c11565b91506125b882612f5a565b604082019050919050565b60006125d0602683612c11565b91506125db82612fa9565b604082019050919050565b60006125f3602583612c11565b91506125fe82612ff8565b604082019050919050565b6000612616601c83612c11565b915061262182613047565b602082019050919050565b6000612639602483612c11565b915061264482613070565b604082019050919050565b600061265c601983612c11565b9150612667826130bf565b602082019050919050565b600061267f602e83612c11565b915061268a826130e8565b604082019050919050565b60006126a2602c83612c11565b91506126ad82613137565b604082019050919050565b60006126c5603883612c11565b91506126d082613186565b604082019050919050565b60006126e8602a83612c11565b91506126f3826131d5565b604082019050919050565b600061270b602983612c11565b915061271682613224565b604082019050919050565b600061272e602083612c11565b915061273982613273565b602082019050919050565b6000612751602c83612c11565b915061275c8261329c565b604082019050919050565b6000612774602083612c11565b915061277f826132eb565b602082019050919050565b6000612797602f83612c11565b91506127a282613314565b604082019050919050565b60006127ba602183612c11565b91506127c582613363565b604082019050919050565b60006127dd603183612c11565b91506127e8826133b2565b604082019050919050565b6000612800601283612c11565b915061280b82613401565b602082019050919050565b61281f81612d64565b82525050565b6000612831828561256f565b915061283d828461256f565b91508190509392505050565b600060208201905061285e60008301846124df565b92915050565b600060208201905061287960008301846124d0565b92915050565b600060808201905061289460008301876124df565b6128a160208301866124df565b6128ae6040830185612816565b81810360608301526128c081846124fd565b905095945050505050565b60006020820190506128e060008301846124ee565b92915050565b600060208201905081810360008301526129008184612536565b905092915050565b60006020820190508181036000830152612921816125a0565b9050919050565b60006020820190508181036000830152612941816125c3565b9050919050565b60006020820190508181036000830152612961816125e6565b9050919050565b6000602082019050818103600083015261298181612609565b9050919050565b600060208201905081810360008301526129a18161262c565b9050919050565b600060208201905081810360008301526129c18161264f565b9050919050565b600060208201905081810360008301526129e181612672565b9050919050565b60006020820190508181036000830152612a0181612695565b9050919050565b60006020820190508181036000830152612a21816126b8565b9050919050565b60006020820190508181036000830152612a41816126db565b9050919050565b60006020820190508181036000830152612a61816126fe565b9050919050565b60006020820190508181036000830152612a8181612721565b9050919050565b60006020820190508181036000830152612aa181612744565b9050919050565b60006020820190508181036000830152612ac181612767565b9050919050565b60006020820190508181036000830152612ae18161278a565b9050919050565b60006020820190508181036000830152612b01816127ad565b9050919050565b60006020820190508181036000830152612b21816127d0565b9050919050565b60006020820190508181036000830152612b41816127f3565b9050919050565b6000602082019050612b5d6000830184612816565b92915050565b6000612b6d612b7e565b9050612b798282612de2565b919050565b6000604051905090565b600067ffffffffffffffff821115612ba357612ba2612f1a565b5b612bac82612f49565b9050602081019050919050565b600067ffffffffffffffff821115612bd457612bd3612f1a565b5b612bdd82612f49565b9050602081019050919050565b600081519050919050565b600081519050919050565b600082825260208201905092915050565b600082825260208201905092915050565b600081905092915050565b6000612c3882612d64565b9150612c4383612d64565b9250827fffffffffffffffffffffffffffffffffffffffffffffffffffffffffffffffff03821115612c7857612c77612e8d565b5b828201905092915050565b6000612c8e82612d64565b9150612c9983612d64565b925082612ca957612ca8612ebc565b5b828204905092915050565b6000612cbf82612d64565b9150612cca83612d64565b925082821015612cdd57612cdc612e8d565b5b828203905092915050565b6000612cf382612d44565b9050919050565b6000612d0582612d44565b9050919050565b60008115159050919050565b60007fffffffff0000000000000000000000000000000000000000000000000000000082169050919050565b600073ffffffffffffffffffffffffffffffffffffffff82169050919050565b6000819050919050565b82818337600083830152505050565b60005b83811015612d9b578082015181840152602081019050612d80565b83811115612daa576000848401525b50505050565b60006002820490506001821680612dc857607f821691505b60208210811415612ddc57612ddb612eeb565b5b50919050565b612deb82612f49565b810181811067ffffffffffffffff82111715612e0a57612e09612f1a565b5b80604052505050565b6000612e1e82612d64565b91507fffffffffffffffffffffffffffffffffffffffffffffffffffffffffffffffff821415612e5157612e50612e8d565b5b600182019050919050565b6000612e6782612d64565b9150612e7283612d64565b925082612e8257612e81612ebc565b5b828206905092915050565b7f4e487b7100000000000000000000000000000000000000000000000000000000600052601160045260246000fd5b7f4e487b7100000000000000000000000000000000000000000000000000000000600052601260045260246000fd5b7f4e487b7100000000000000000000000000000000000000000000000000000000600052602260045260246000fd5b7f4e487b7100000000000000000000000000000000000000000000000000000000600052604160045260246000fd5b6000601f19601f8301169050919050565b7f4552433732313a207472616e7366657220746f206e6f6e20455243373231526560008201527f63656976657220696d706c656d656e7465720000000000000000000000000000602082015250565b7f4f776e61626c653a206e6577206f776e657220697320746865207a65726f206160008201527f6464726573730000000000000000000000000000000000000000000000000000602082015250565b7f4552433732313a207472616e736665722066726f6d20696e636f72726563742060008201527f6f776e6572000000000000000000000000000000000000000000000000000000602082015250565b7f4552433732313a20746f6b656e20616c7265616479206d696e74656400000000600082015250565b7f4552433732313a207472616e7366657220746f20746865207a65726f2061646460008201527f7265737300000000000000000000000000000000000000000000000000000000602082015250565b7f4552433732313a20617070726f766520746f2063616c6c657200000000000000600082015250565b7f5472616e73616374696f6e2076616c756520646964206e6f7420657175616c2060008201527f746865206d696e74207072696365000000000000000000000000000000000000602082015250565b7f4552433732313a206f70657261746f7220717565727920666f72206e6f6e657860008201527f697374656e7420746f6b656e0000000000000000000000000000000000000000602082015250565b7f4552433732313a20617070726f76652063616c6c6572206973206e6f74206f7760008201527f6e6572206e6f7220617070726f76656420666f7220616c6c0000000000000000602082015250565b7f4552433732313a2062616c616e636520717565727920666f7220746865207a6560008201527f726f206164647265737300000000000000000000000000000000000000000000602082015250565b7f4552433732313a206f776e657220717565727920666f72206e6f6e657869737460008201527f656e7420746f6b656e0000000000000000000000000000000000000000000000602082015250565b7f4552433732313a206d696e7420746f20746865207a65726f2061646472657373600082015250565b7f4552433732313a20617070726f76656420717565727920666f72206e6f6e657860008201527f697374656e7420746f6b656e0000000000000000000000000000000000000000602082015250565b7f4f776e61626c653a2063616c6c6572206973206e6f7420746865206f776e6572600082015250565b7f4552433732314d657461646174613a2055524920717565727920666f72206e6f60008201527f6e6578697374656e7420746f6b656e0000000000000000000000000000000000602082015250565b7f4552433732313a20617070726f76616c20746f2063757272656e74206f776e6560008201527f7200000000000000000000000000000000000000000000000000000000000000602082015250565b7f4552433732313a207472616e736665722063616c6c6572206973206e6f74206f60008201527f776e6572206e6f7220617070726f766564000000000000000000000000000000602082015250565b7f4d617820737570706c7920726561636865640000000000000000000000000000600082015250565b61343381612ce8565b811461343e57600080fd5b50565b61344a81612cfa565b811461345557600080fd5b50565b61346181612d0c565b811461346c57600080fd5b50565b61347881612d18565b811461348357600080fd5b50565b61348f81612d64565b811461349a57600080fd5b5056fea264697066735822122004d39640c780d07d346b201270e7564d8cc197614b890dc1a3b7073f29f1ccfe64736f6c63430008010033608060405234801561001057600080fd5b5061002d61002261003260201b60201c565b61003a60201b60201c565b6100fe565b600033905090565b60008060009054906101000a900473ffffffffffffffffffffffffffffffffffffffff169050816000806101000a81548173ffffffffffffffffffffffffffffffffffffffff021916908373ffffffffffffffffffffffffffffffffffffffff1602179055508173ffffffffffffffffffffffffffffffffffffffff168173ffffffffffffffffffffffffffffffffffffffff167f8be0079c531659141344cd1fd0a4f28419497f9722a3daafe3b4186f6b6457e060405160405180910390a35050565b610bfc8061010d6000396000f3fe6080604052600436106100555760003560e01c806351cff8d91461005a578063715018a6146100835780638da5cb5b1461009a578063e3a9db1a146100c5578063f2fde38b14610102578063f340fa011461012b575b600080fd5b34801561006657600080fd5b50610081600480360381019061007c91906107f5565b610147565b005b34801561008f57600080fd5b506100986102c7565b005b3480156100a657600080fd5b506100af61034f565b6040516100bc9190610900565b60405180910390f35b3480156100d157600080fd5b506100ec60048036038101906100e791906107cc565b610378565b6040516100f9919061099b565b60405180910390f35b34801561010e57600080fd5b50610129600480360381019061012491906107cc565b6103c1565b005b610145600480360381019061014091906107cc565b6104b9565b005b61014f6105e2565b73ffffffffffffffffffffffffffffffffffffffff1661016d61034f565b73ffffffffffffffffffffffffffffffffffffffff16146101c3576040517f08c379a00000000000000000000000000000000000000000000000000000000081526004016101ba9061097b565b60405180910390fd5b6000600160008373ffffffffffffffffffffffffffffffffffffffff1673ffffffffffffffffffffffffffffffffffffffff1681526020019081526020016000205490506000600160008473ffffffffffffffffffffffffffffffffffffffff1673ffffffffffffffffffffffffffffffffffffffff16815260200190815260200160002081905550610275818373ffffffffffffffffffffffffffffffffffffffff166105ea90919063ffffffff16565b8173ffffffffffffffffffffffffffffffffffffffff167f7084f5476618d8e60b11ef0d7d3f06914655adb8793e28ff7f018d4c76d505d5826040516102bb919061099b565b60405180910390a25050565b6102cf6105e2565b73ffffffffffffffffffffffffffffffffffffffff166102ed61034f565b73ffffffffffffffffffffffffffffffffffffffff1614610343576040517f08c379a000000000000000000000000000000000000000000000000000000000815260040161033a9061097b565b60405180910390fd5b61034d60006106de565b565b60008060009054906101000a900473ffffffffffffffffffffffffffffffffffffffff16905090565b6000600160008373ffffffffffffffffffffffffffffffffffffffff1673ffffffffffffffffffffffffffffffffffffffff168152602001908152602001600020549050919050565b6103c96105e2565b73ffffffffffffffffffffffffffffffffffffffff166103e761034f565b73ffffffffffffffffffffffffffffffffffffffff161461043d576040517f08c379a00000000000000000000000000000000000000000000000000000000081526004016104349061097b565b60405180910390fd5b600073ffffffffffffffffffffffffffffffffffffffff168173ffffffffffffffffffffffffffffffffffffffff1614156104ad576040517f08c379a00000000000000000000000000000000000000000000000000000000081526004016104a49061091b565b60405180910390fd5b6104b6816106de565b50565b6104c16105e2565b73ffffffffffffffffffffffffffffffffffffffff166104df61034f565b73ffffffffffffffffffffffffffffffffffffffff1614610535576040517f08c379a000000000000000000000000000000000000000000000000000000000815260040161052c9061097b565b60405180910390fd5b600034905080600160008473ffffffffffffffffffffffffffffffffffffffff1673ffffffffffffffffffffffffffffffffffffffff168152602001908152602001600020600082825461058991906109d2565b925050819055508173ffffffffffffffffffffffffffffffffffffffff167f2da466a7b24304f47e87fa2e1e5a81b9831ce54fec19055ce277ca2f39ba42c4826040516105d6919061099b565b60405180910390a25050565b600033905090565b8047101561062d576040517f08c379a00000000000000000000000000000000000000000000000000000000081526004016106249061095b565b60405180910390fd5b60008273ffffffffffffffffffffffffffffffffffffffff1682604051610653906108eb565b60006040518083038185875af1925050503d8060008114610690576040519150601f19603f3d011682016040523d82523d6000602084013e610695565b606091505b50509050806106d9576040517f08c379a00000000000000000000000000000000000000000000000000000000081526004016106d09061093b565b60405180910390fd5b505050565b60008060009054906101000a900473ffffffffffffffffffffffffffffffffffffffff169050816000806101000a81548173ffffffffffffffffffffffffffffffffffffffff021916908373ffffffffffffffffffffffffffffffffffffffff1602179055508173ffffffffffffffffffffffffffffffffffffffff168173ffffffffffffffffffffffffffffffffffffffff167f8be0079c531659141344cd1fd0a4f28419497f9722a3daafe3b4186f6b6457e060405160405180910390a35050565b6000813590506107b181610b98565b92915050565b6000813590506107c681610baf565b92915050565b6000602082840312156107de57600080fd5b60006107ec848285016107a2565b91505092915050565b60006020828403121561080757600080fd5b6000610815848285016107b7565b91505092915050565b61082781610a28565b82525050565b600061083a6026836109c1565b915061084582610aa5565b604082019050919050565b600061085d603a836109c1565b915061086882610af4565b604082019050919050565b6000610880601d836109c1565b915061088b82610b43565b602082019050919050565b60006108a36020836109c1565b91506108ae82610b6c565b602082019050919050565b60006108c66000836109b6565b91506108d182610b95565b600082019050919050565b6108e581610a6c565b82525050565b60006108f6826108b9565b9150819050919050565b6000602082019050610915600083018461081e565b92915050565b600060208201905081810360008301526109348161082d565b9050919050565b6000602082019050818103600083015261095481610850565b9050919050565b6000602082019050818103600083015261097481610873565b9050919050565b6000602082019050818103600083015261099481610896565b9050919050565b60006020820190506109b060008301846108dc565b92915050565b600081905092915050565b600082825260208201905092915050565b60006109dd82610a6c565b91506109e883610a6c565b9250827fffffffffffffffffffffffffffffffffffffffffffffffffffffffffffffffff03821115610a1d57610a1c610a76565b5b828201905092915050565b6000610a3382610a4c565b9050919050565b6000610a4582610a4c565b9050919050565b600073ffffffffffffffffffffffffffffffffffffffff82169050919050565b6000819050919050565b7f4e487b7100000000000000000000000000000000000000000000000000000000600052601160045260246000fd5b7f4f776e61626c653a206e6577206f776e657220697320746865207a65726f206160008201527f6464726573730000000000000000000000000000000000000000000000000000602082015250565b7f416464726573733a20756e61626c6520746f2073656e642076616c75652c207260008201527f6563697069656e74206d61792068617665207265766572746564000000000000602082015250565b7f416464726573733a20696e73756666696369656e742062616c616e6365000000600082015250565b7f4f776e61626c653a2063616c6c6572206973206e6f7420746865206f776e6572600082015250565b50565b610ba181610a28565b8114610bac57600080fd5b50565b610bb881610a3a565b8114610bc357600080fd5b5056fea264697066735822122073b307195fd92b28f2600edbbb914776573abe0392628b3f8a5ee2d6ab956cfa64736f6c63430008010033",
  "linkReferences": {},
  "deployedLinkReferences": {}
}