{
  "_format": "hh-sol-artifact-1",
  "contractName": "NFT",
  "sourceName": "contracts/NFT.sol",
  "abi": [
    {
      "inputs": [],
      "stateMutability": "nonpayable",
      "type": "constructor"
    },
    {
      "anonymous": false,
      "inputs": [
        {
          "indexed": true,
          "internalType": "address",
          "name": "owner",
          "type": "address"
        },
        {
          "indexed": true,
          "internalType": "address",
          "name": "approved",
          "type": "address"
        },
        {
          "indexed": true,
          "internalType": "uint256",
          "name": "tokenId",
          "type": "uint256"
        }
      ],
      "name": "Approval",
      "type": "event"
    },
    {
      "anonymous": false,
      "inputs": [
        {
          "indexed": true,
          "internalType": "address",
          "name": "owner",
          "type": "address"
        },
        {
          "indexed": true,
          "internalType": "address",
          "name": "operator",
          "type": "address"
        },
        {
          "indexed": false,
          "internalType": "bool",
          "name": "approved",
          "type": "bool"
        }
      ],
      "name": "ApprovalForAll",
      "type": "event"
    },
    {
      "anonymous": false,
      "inputs": [
        {
          "indexed": true,
          "internalType": "address",
          "name": "previousOwner",
          "type": "address"
        },
        {
          "indexed": true,
          "internalType": "address",
          "name": "newOwner",
          "type": "address"
        }
      ],
      "name": "OwnershipTransferred",
      "type": "event"
    },
    {
      "anonymous": false,
      "inputs": [
        {
          "indexed": true,
          "internalType": "address",
          "name": "from",
          "type": "address"
        },
        {
          "indexed": true,
          "internalType": "address",
          "name": "to",
          "type": "address"
        },
        {
          "indexed": true,
          "internalType": "uint256",
          "name": "tokenId",
          "type": "uint256"
        }
      ],
      "name": "Transfer",
      "type": "event"
    },
    {
      "inputs": [],
      "name": "TOTAL_SUPPLY",
      "outputs": [
        {
          "internalType": "uint256",
          "name": "",
          "type": "uint256"
        }
      ],
      "stateMutability": "view",
      "type": "function"
    },
    {
      "inputs": [
        {
          "internalType": "address",
          "name": "to",
          "type": "address"
        },
        {
          "internalType": "uint256",
          "name": "tokenId",
          "type": "uint256"
        }
      ],
      "name": "approve",
      "outputs": [],
      "stateMutability": "nonpayable",
      "type": "function"
    },
    {
      "inputs": [
        {
          "internalType": "address",
          "name": "owner",
          "type": "address"
        }
      ],
      "name": "balanceOf",
      "outputs": [
        {
          "internalType": "uint256",
          "name": "",
          "type": "uint256"
        }
      ],
      "stateMutability": "view",
      "type": "function"
    },
    {
      "inputs": [],
      "name": "baseTokenURI",
      "outputs": [
        {
          "internalType": "string",
          "name": "",
          "type": "string"
        }
      ],
      "stateMutability": "view",
      "type": "function"
    },
    {
      "inputs": [
        {
          "internalType": "uint256",
          "name": "tokenId",
          "type": "uint256"
        }
      ],
      "name": "getApproved",
      "outputs": [
        {
          "internalType": "address",
          "name": "",
          "type": "address"
        }
      ],
      "stateMutability": "view",
      "type": "function"
    },
    {
      "inputs": [
        {
          "internalType": "address",
          "name": "owner",
          "type": "address"
        },
        {
          "internalType": "address",
          "name": "operator",
          "type": "address"
        }
      ],
      "name": "isApprovedForAll",
      "outputs": [
        {
          "internalType": "bool",
          "name": "",
          "type": "bool"
        }
      ],
      "stateMutability": "view",
      "type": "function"
    },
    {
      "inputs": [
        {
          "internalType": "address",
          "name": "recipient",
          "type": "address"
        }
      ],
      "name": "mintTo",
      "outputs": [
        {
          "internalType": "uint256",
          "name": "",
          "type": "uint256"
        }
      ],
      "stateMutability": "nonpayable",
      "type": "function"
    },
    {
      "inputs": [],
      "name": "name",
      "outputs": [
        {
          "internalType": "string",
          "name": "",
          "type": "string"
        }
      ],
      "stateMutability": "view",
      "type": "function"
    },
    {
      "inputs": [],
      "name": "owner",
      "outputs": [
        {
          "internalType": "address",
          "name": "",
          "type": "address"
        }
      ],
      "stateMutability": "view",
      "type": "function"
    },
    {
      "inputs": [
        {
          "internalType": "uint256",
          "name": "tokenId",
          "type": "uint256"
        }
      ],
      "name": "ownerOf",
      "outputs": [
        {
          "internalType": "address",
          "name": "",
          "type": "address"
        }
      ],
      "stateMutability": "view",
      "type": "function"
    },
    {
      "inputs": [
        {
          "internalType": "address",
          "name": "dest",
          "type": "address"
        }
      ],
      "name": "payments",
      "outputs": [
        {
          "internalType": "uint256",
          "name": "",
          "type": "uint256"
        }
      ],
      "stateMutability": "view",
      "type": "function"
    },
    {
      "inputs": [],
      "name": "renounceOwnership",
      "outputs": [],
      "stateMutability": "nonpayable",
      "type": "function"
    },
    {
      "inputs": [
        {
          "internalType": "address",
          "name": "from",
          "type": "address"
        },
        {
          "internalType": "address",
          "name": "to",
          "type": "address"
        },
        {
          "internalType": "uint256",
          "name": "tokenId",
          "type": "uint256"
        }
      ],
      "name": "safeTransferFrom",
      "outputs": [],
      "stateMutability": "nonpayable",
      "type": "function"
    },
    {
      "inputs": [
        {
          "internalType": "address",
          "name": "from",
          "type": "address"
        },
        {
          "internalType": "address",
          "name": "to",
          "type": "address"
        },
        {
          "internalType": "uint256",
          "name": "tokenId",
          "type": "uint256"
        },
        {
          "internalType": "bytes",
          "name": "_data",
          "type": "bytes"
        }
      ],
      "name": "safeTransferFrom",
      "outputs": [],
      "stateMutability": "nonpayable",
      "type": "function"
    },
    {
      "inputs": [
        {
          "internalType": "address",
          "name": "operator",
          "type": "address"
        },
        {
          "internalType": "bool",
          "name": "approved",
          "type": "bool"
        }
      ],
      "name": "setApprovalForAll",
      "outputs": [],
      "stateMutability": "nonpayable",
      "type": "function"
    },
    {
      "inputs": [
        {
          "internalType": "string",
          "name": "_baseTokenURI",
          "type": "string"
        }
      ],
      "name": "setBaseTokenURI",
      "outputs": [],
      "stateMutability": "nonpayable",
      "type": "function"
    },
    {
      "inputs": [
        {
          "internalType": "bytes4",
          "name": "interfaceId",
          "type": "bytes4"
        }
      ],
      "name": "supportsInterface",
      "outputs": [
        {
          "internalType": "bool",
          "name": "",
          "type": "bool"
        }
      ],
      "stateMutability": "view",
      "type": "function"
    },
    {
      "inputs": [],
      "name": "symbol",
      "outputs": [
        {
          "internalType": "string",
          "name": "",
          "type": "string"
        }
      ],
      "stateMutability": "view",
      "type": "function"
    },
    {
      "inputs": [
        {
          "internalType": "uint256",
          "name": "tokenId",
          "type": "uint256"
        }
      ],
      "name": "tokenURI",
      "outputs": [
        {
          "internalType": "string",
          "name": "",
          "type": "string"
        }
      ],
      "stateMutability": "view",
      "type": "function"
    },
    {
      "inputs": [
        {
          "internalType": "address",
          "name": "from",
          "type": "address"
        },
        {
          "internalType": "address",
          "name": "to",
          "type": "address"
        },
        {
          "internalType": "uint256",
          "name": "tokenId",
          "type": "uint256"
        }
      ],
      "name": "transferFrom",
      "outputs": [],
      "stateMutability": "nonpayable",
      "type": "function"
    },
    {
      "inputs": [
        {
          "internalType": "address",
          "name": "newOwner",
          "type": "address"
        }
      ],
      "name": "transferOwnership",
      "outputs": [],
      "stateMutability": "nonpayable",
      "type": "function"
    },
    {
      "inputs": [
        {
          "internalType": "address payable",
          "name": "payee",
          "type": "address"
        }
      ],
      "name": "withdrawPayments",
      "outputs": [],
      "stateMutability": "nonpayable",
      "type": "function"
    }
  ],
  "bytecode": "0x60a06040523480156200001157600080fd5b506040518060400160405280601181526020017f53554d49545f4e46545f52494e4b4542590000000000000000000000000000008152506040518060400160405280600381526020017f4e4654000000000000000000000000000000000000000000000000000000000081525081600090805190602001906200009692919062000230565b508060019080519060200190620000af92919062000230565b505050604051620000c090620002c1565b604051809103906000f080158015620000dd573d6000803e3d6000fd5b5073ffffffffffffffffffffffffffffffffffffffff1660808173ffffffffffffffffffffffffffffffffffffffff1660601b8152505062000134620001286200016260201b60201c565b6200016a60201b60201c565b60405180602001604052806000815250600890805190602001906200015b92919062000230565b5062000353565b600033905090565b6000600660009054906101000a900473ffffffffffffffffffffffffffffffffffffffff16905081600660006101000a81548173ffffffffffffffffffffffffffffffffffffffff021916908373ffffffffffffffffffffffffffffffffffffffff1602179055508173ffffffffffffffffffffffffffffffffffffffff168173ffffffffffffffffffffffffffffffffffffffff167f8be0079c531659141344cd1fd0a4f28419497f9722a3daafe3b4186f6b6457e060405160405180910390a35050565b8280546200023e90620002ee565b90600052602060002090601f016020900481019282620002625760008555620002ae565b82601f106200027d57805160ff1916838001178555620002ae565b82800160010185558215620002ae579182015b82811115620002ad57825182559160200191906001019062000290565b5b509050620002bd9190620002cf565b5090565b610d0980620036a983390190565b5b80821115620002ea576000816000905550600101620002d0565b5090565b600060028204905060018216806200030757607f821691505b602082108114156200031e576200031d62000324565b5b50919050565b7f4e487b7100000000000000000000000000000000000000000000000000000000600052602260045260246000fd5b60805160601c6133306200037960003960008181610e57015261156f01526133306000f3fe608060405234801561001057600080fd5b50600436106101425760003560e01c8063755edd17116100b8578063b88d4fde1161007c578063b88d4fde14610361578063c87b56dd1461037d578063d547cfb7146103ad578063e2982c21146103cb578063e985e9c5146103fb578063f2fde38b1461042b57610142565b8063755edd17146102bb5780638da5cb5b146102eb578063902d55a51461030957806395d89b4114610327578063a22cb4651461034557610142565b806330176e131161010a57806330176e13146101fd57806331b3eb941461021957806342842e0e146102355780636352211e1461025157806370a0823114610281578063715018a6146102b157610142565b806301ffc9a71461014757806306fdde0314610177578063081812fc14610195578063095ea7b3146101c557806323b872dd146101e1575b600080fd5b610161600480360381019061015c91906122da565b610447565b60405161016e9190612797565b60405180910390f35b61017f610529565b60405161018c91906127b2565b60405180910390f35b6101af60048036038101906101aa919061236d565b6105bb565b6040516101bc9190612715565b60405180910390f35b6101df60048036038101906101da919061229e565b610640565b005b6101fb60048036038101906101f69190612198565b610758565b005b6102176004803603810190610212919061232c565b6107b8565b005b610233600480360381019061022e9190612133565b61084e565b005b61024f600480360381019061024a9190612198565b6108d6565b005b61026b6004803603810190610266919061236d565b6108f6565b6040516102789190612715565b60405180910390f35b61029b6004803603810190610296919061210a565b6109a8565b6040516102a891906129f4565b60405180910390f35b6102b9610a60565b005b6102d560048036038101906102d0919061210a565b610ae8565b6040516102e291906129f4565b60405180910390f35b6102f3610be4565b6040516103009190612715565b60405180910390f35b610311610c0e565b60405161031e91906129f4565b60405180910390f35b61032f610c14565b60405161033c91906127b2565b60405180910390f35b61035f600480360381019061035a9190612262565b610ca6565b005b61037b600480360381019061037691906121e7565b610cbc565b005b6103976004803603810190610392919061236d565b610d1e565b6040516103a491906127b2565b60405180910390f35b6103b5610dc5565b6040516103c291906127b2565b60405180910390f35b6103e560048036038101906103e0919061210a565b610e53565b6040516103f291906129f4565b60405180910390f35b6104156004803603810190610410919061215c565b610f05565b6040516104229190612797565b60405180910390f35b6104456004803603810190610440919061210a565b610f99565b005b60007f80ac58cd000000000000000000000000000000000000000000000000000000007bffffffffffffffffffffffffffffffffffffffffffffffffffffffff1916827bffffffffffffffffffffffffffffffffffffffffffffffffffffffff1916148061051257507f5b5e139f000000000000000000000000000000000000000000000000000000007bffffffffffffffffffffffffffffffffffffffffffffffffffffffff1916827bffffffffffffffffffffffffffffffffffffffffffffffffffffffff1916145b80610522575061052182611091565b5b9050919050565b60606000805461053890612c5c565b80601f016020809104026020016040519081016040528092919081815260200182805461056490612c5c565b80156105b15780601f10610586576101008083540402835291602001916105b1565b820191906000526020600020905b81548152906001019060200180831161059457829003601f168201915b5050505050905090565b60006105c6826110fb565b610605576040517f08c379a00000000000000000000000000000000000000000000000000000000081526004016105fc90612934565b60405180910390fd5b6004600083815260200190815260200160002060009054906101000a900473ffffffffffffffffffffffffffffffffffffffff169050919050565b600061064b826108f6565b90508073ffffffffffffffffffffffffffffffffffffffff168373ffffffffffffffffffffffffffffffffffffffff1614156106bc576040517f08c379a00000000000000000000000000000000000000000000000000000000081526004016106b390612994565b60405180910390fd5b8073ffffffffffffffffffffffffffffffffffffffff166106db611167565b73ffffffffffffffffffffffffffffffffffffffff16148061070a575061070981610704611167565b610f05565b5b610749576040517f08c379a0000000000000000000000000000000000000000000000000000000008152600401610740906128b4565b60405180910390fd5b610753838361116f565b505050565b610769610763611167565b82611228565b6107a8576040517f08c379a000000000000000000000000000000000000000000000000000000000815260040161079f906129b4565b60405180910390fd5b6107b3838383611306565b505050565b6107c0611167565b73ffffffffffffffffffffffffffffffffffffffff166107de610be4565b73ffffffffffffffffffffffffffffffffffffffff1614610834576040517f08c379a000000000000000000000000000000000000000000000000000000000815260040161082b90612954565b60405180910390fd5b806008908051906020019061084a929190611f04565b5050565b610856611167565b73ffffffffffffffffffffffffffffffffffffffff16610874610be4565b73ffffffffffffffffffffffffffffffffffffffff16146108ca576040517f08c379a00000000000000000000000000000000000000000000000000000000081526004016108c190612954565b60405180910390fd5b6108d38161156d565b50565b6108f183838360405180602001604052806000815250610cbc565b505050565b6000806002600084815260200190815260200160002060009054906101000a900473ffffffffffffffffffffffffffffffffffffffff169050600073ffffffffffffffffffffffffffffffffffffffff168173ffffffffffffffffffffffffffffffffffffffff16141561099f576040517f08c379a0000000000000000000000000000000000000000000000000000000008152600401610996906128f4565b60405180910390fd5b80915050919050565b60008073ffffffffffffffffffffffffffffffffffffffff168273ffffffffffffffffffffffffffffffffffffffff161415610a19576040517f08c379a0000000000000000000000000000000000000000000000000000000008152600401610a10906128d4565b60405180910390fd5b600360008373ffffffffffffffffffffffffffffffffffffffff1673ffffffffffffffffffffffffffffffffffffffff168152602001908152602001600020549050919050565b610a68611167565b73ffffffffffffffffffffffffffffffffffffffff16610a86610be4565b73ffffffffffffffffffffffffffffffffffffffff1614610adc576040517f08c379a0000000000000000000000000000000000000000000000000000000008152600401610ad390612954565b60405180910390fd5b610ae660006115fb565b565b6000610af2611167565b73ffffffffffffffffffffffffffffffffffffffff16610b10610be4565b73ffffffffffffffffffffffffffffffffffffffff1614610b66576040517f08c379a0000000000000000000000000000000000000000000000000000000008152600401610b5d90612954565b60405180910390fd5b6000610b7260076116c1565b90506127108110610bb8576040517f08c379a0000000000000000000000000000000000000000000000000000000008152600401610baf906129d4565b60405180910390fd5b610bc260076116cf565b6000610bce60076116c1565b9050610bda84826116e5565b8092505050919050565b6000600660009054906101000a900473ffffffffffffffffffffffffffffffffffffffff16905090565b61271081565b606060018054610c2390612c5c565b80601f0160208091040260200160405190810160405280929190818152602001828054610c4f90612c5c565b8015610c9c5780601f10610c7157610100808354040283529160200191610c9c565b820191906000526020600020905b815481529060010190602001808311610c7f57829003601f168201915b5050505050905090565b610cb8610cb1611167565b8383611703565b5050565b610ccd610cc7611167565b83611228565b610d0c576040517f08c379a0000000000000000000000000000000000000000000000000000000008152600401610d03906129b4565b60405180910390fd5b610d1884848484611870565b50505050565b6060610d29826110fb565b610d68576040517f08c379a0000000000000000000000000000000000000000000000000000000008152600401610d5f90612974565b60405180910390fd5b6000610d726118cc565b90506000815111610d925760405180602001604052806000815250610dbd565b80610d9c8461195e565b604051602001610dad9291906126f1565b6040516020818303038152906040525b915050919050565b60088054610dd290612c5c565b80601f0160208091040260200160405190810160405280929190818152602001828054610dfe90612c5c565b8015610e4b5780601f10610e2057610100808354040283529160200191610e4b565b820191906000526020600020905b815481529060010190602001808311610e2e57829003601f168201915b505050505081565b60007f000000000000000000000000000000000000000000000000000000000000000073ffffffffffffffffffffffffffffffffffffffff1663e3a9db1a836040518263ffffffff1660e01b8152600401610eae9190612715565b60206040518083038186803b158015610ec657600080fd5b505afa158015610eda573d6000803e3d6000fd5b505050506040513d601f19601f82011682018060405250810190610efe9190612396565b9050919050565b6000600560008473ffffffffffffffffffffffffffffffffffffffff1673ffffffffffffffffffffffffffffffffffffffff16815260200190815260200160002060008373ffffffffffffffffffffffffffffffffffffffff1673ffffffffffffffffffffffffffffffffffffffff16815260200190815260200160002060009054906101000a900460ff16905092915050565b610fa1611167565b73ffffffffffffffffffffffffffffffffffffffff16610fbf610be4565b73ffffffffffffffffffffffffffffffffffffffff1614611015576040517f08c379a000000000000000000000000000000000000000000000000000000000815260040161100c90612954565b60405180910390fd5b600073ffffffffffffffffffffffffffffffffffffffff168173ffffffffffffffffffffffffffffffffffffffff161415611085576040517f08c379a000000000000000000000000000000000000000000000000000000000815260040161107c906127f4565b60405180910390fd5b61108e816115fb565b50565b60007f01ffc9a7000000000000000000000000000000000000000000000000000000007bffffffffffffffffffffffffffffffffffffffffffffffffffffffff1916827bffffffffffffffffffffffffffffffffffffffffffffffffffffffff1916149050919050565b60008073ffffffffffffffffffffffffffffffffffffffff166002600084815260200190815260200160002060009054906101000a900473ffffffffffffffffffffffffffffffffffffffff1673ffffffffffffffffffffffffffffffffffffffff1614159050919050565b600033905090565b816004600083815260200190815260200160002060006101000a81548173ffffffffffffffffffffffffffffffffffffffff021916908373ffffffffffffffffffffffffffffffffffffffff160217905550808273ffffffffffffffffffffffffffffffffffffffff166111e2836108f6565b73ffffffffffffffffffffffffffffffffffffffff167f8c5be1e5ebec7d5bd14f71427d1e84f3dd0314c0f7b2291e5b200ac8c7c3b92560405160405180910390a45050565b6000611233826110fb565b611272576040517f08c379a000000000000000000000000000000000000000000000000000000000815260040161126990612894565b60405180910390fd5b600061127d836108f6565b90508073ffffffffffffffffffffffffffffffffffffffff168473ffffffffffffffffffffffffffffffffffffffff1614806112bf57506112be8185610f05565b5b806112fd57508373ffffffffffffffffffffffffffffffffffffffff166112e5846105bb565b73ffffffffffffffffffffffffffffffffffffffff16145b91505092915050565b8273ffffffffffffffffffffffffffffffffffffffff16611326826108f6565b73ffffffffffffffffffffffffffffffffffffffff161461137c576040517f08c379a000000000000000000000000000000000000000000000000000000000815260040161137390612814565b60405180910390fd5b600073ffffffffffffffffffffffffffffffffffffffff168273ffffffffffffffffffffffffffffffffffffffff1614156113ec576040517f08c379a00000000000000000000000000000000000000000000000000000000081526004016113e390612854565b60405180910390fd5b6113f7838383611b0b565b61140260008261116f565b6001600360008573ffffffffffffffffffffffffffffffffffffffff1673ffffffffffffffffffffffffffffffffffffffff16815260200190815260200160002060008282546114529190612b60565b925050819055506001600360008473ffffffffffffffffffffffffffffffffffffffff1673ffffffffffffffffffffffffffffffffffffffff16815260200190815260200160002060008282546114a99190612ad9565b92505081905550816002600083815260200190815260200160002060006101000a81548173ffffffffffffffffffffffffffffffffffffffff021916908373ffffffffffffffffffffffffffffffffffffffff160217905550808273ffffffffffffffffffffffffffffffffffffffff168473ffffffffffffffffffffffffffffffffffffffff167fddf252ad1be2c89b69c2b068fc378daa952ba7f163c4a11628f55a4df523b3ef60405160405180910390a4611568838383611b10565b505050565b7f000000000000000000000000000000000000000000000000000000000000000073ffffffffffffffffffffffffffffffffffffffff166351cff8d9826040518263ffffffff1660e01b81526004016115c69190612730565b600060405180830381600087803b1580156115e057600080fd5b505af11580156115f4573d6000803e3d6000fd5b5050505050565b6000600660009054906101000a900473ffffffffffffffffffffffffffffffffffffffff16905081600660006101000a81548173ffffffffffffffffffffffffffffffffffffffff021916908373ffffffffffffffffffffffffffffffffffffffff1602179055508173ffffffffffffffffffffffffffffffffffffffff168173ffffffffffffffffffffffffffffffffffffffff167f8be0079c531659141344cd1fd0a4f28419497f9722a3daafe3b4186f6b6457e060405160405180910390a35050565b600081600001549050919050565b6001816000016000828254019250508190555050565b6116ff828260405180602001604052806000815250611b15565b5050565b8173ffffffffffffffffffffffffffffffffffffffff168373ffffffffffffffffffffffffffffffffffffffff161415611772576040517f08c379a000000000000000000000000000000000000000000000000000000000815260040161176990612874565b60405180910390fd5b80600560008573ffffffffffffffffffffffffffffffffffffffff1673ffffffffffffffffffffffffffffffffffffffff16815260200190815260200160002060008473ffffffffffffffffffffffffffffffffffffffff1673ffffffffffffffffffffffffffffffffffffffff16815260200190815260200160002060006101000a81548160ff0219169083151502179055508173ffffffffffffffffffffffffffffffffffffffff168373ffffffffffffffffffffffffffffffffffffffff167f17307eab39ab6107e8899845ad3d59bd9653f200f220920489ca2b5937696c31836040516118639190612797565b60405180910390a3505050565b61187b848484611306565b61188784848484611b70565b6118c6576040517f08c379a00000000000000000000000000000000000000000000000000000000081526004016118bd906127d4565b60405180910390fd5b50505050565b6060600880546118db90612c5c565b80601f016020809104026020016040519081016040528092919081815260200182805461190790612c5c565b80156119545780601f1061192957610100808354040283529160200191611954565b820191906000526020600020905b81548152906001019060200180831161193757829003601f168201915b5050505050905090565b606060008214156119a6576040518060400160405280600181526020017f30000000000000000000000000000000000000000000000000000000000000008152509050611b06565b600082905060005b600082146119d85780806119c190612cbf565b915050600a826119d19190612b2f565b91506119ae565b60008167ffffffffffffffff811115611a1a577f4e487b7100000000000000000000000000000000000000000000000000000000600052604160045260246000fd5b6040519080825280601f01601f191660200182016040528015611a4c5781602001600182028036833780820191505090505b5090505b60008514611aff57600182611a659190612b60565b9150600a85611a749190612d08565b6030611a809190612ad9565b60f81b818381518110611abc577f4e487b7100000000000000000000000000000000000000000000000000000000600052603260045260246000fd5b60200101907effffffffffffffffffffffffffffffffffffffffffffffffffffffffffffff1916908160001a905350600a85611af89190612b2f565b9450611a50565b8093505050505b919050565b505050565b505050565b611b1f8383611d07565b611b2c6000848484611b70565b611b6b576040517f08c379a0000000000000000000000000000000000000000000000000000000008152600401611b62906127d4565b60405180910390fd5b505050565b6000611b918473ffffffffffffffffffffffffffffffffffffffff16611ee1565b15611cfa578373ffffffffffffffffffffffffffffffffffffffff1663150b7a02611bba611167565b8786866040518563ffffffff1660e01b8152600401611bdc949392919061274b565b602060405180830381600087803b158015611bf657600080fd5b505af1925050508015611c2757506040513d601f19601f82011682018060405250810190611c249190612303565b60015b611caa573d8060008114611c57576040519150601f19603f3d011682016040523d82523d6000602084013e611c5c565b606091505b50600081511415611ca2576040517f08c379a0000000000000000000000000000000000000000000000000000000008152600401611c99906127d4565b60405180910390fd5b805181602001fd5b63150b7a0260e01b7bffffffffffffffffffffffffffffffffffffffffffffffffffffffff1916817bffffffffffffffffffffffffffffffffffffffffffffffffffffffff191614915050611cff565b600190505b949350505050565b600073ffffffffffffffffffffffffffffffffffffffff168273ffffffffffffffffffffffffffffffffffffffff161415611d77576040517f08c379a0000000000000000000000000000000000000000000000000000000008152600401611d6e90612914565b60405180910390fd5b611d80816110fb565b15611dc0576040517f08c379a0000000000000000000000000000000000000000000000000000000008152600401611db790612834565b60405180910390fd5b611dcc60008383611b0b565b6001600360008473ffffffffffffffffffffffffffffffffffffffff1673ffffffffffffffffffffffffffffffffffffffff1681526020019081526020016000206000828254611e1c9190612ad9565b92505081905550816002600083815260200190815260200160002060006101000a81548173ffffffffffffffffffffffffffffffffffffffff021916908373ffffffffffffffffffffffffffffffffffffffff160217905550808273ffffffffffffffffffffffffffffffffffffffff16600073ffffffffffffffffffffffffffffffffffffffff167fddf252ad1be2c89b69c2b068fc378daa952ba7f163c4a11628f55a4df523b3ef60405160405180910390a4611edd60008383611b10565b5050565b6000808273ffffffffffffffffffffffffffffffffffffffff163b119050919050565b828054611f1090612c5c565b90600052602060002090601f016020900481019282611f325760008555611f79565b82601f10611f4b57805160ff1916838001178555611f79565b82800160010185558215611f79579182015b82811115611f78578251825591602001919060010190611f5d565b5b509050611f869190611f8a565b5090565b5b80821115611fa3576000816000905550600101611f8b565b5090565b6000611fba611fb584612a34565b612a0f565b905082815260208101848484011115611fd257600080fd5b611fdd848285612c1a565b509392505050565b6000611ff8611ff384612a65565b612a0f565b90508281526020810184848401111561201057600080fd5b61201b848285612c1a565b509392505050565b60008135905061203281613287565b92915050565b6000813590506120478161329e565b92915050565b60008135905061205c816132b5565b92915050565b600081359050612071816132cc565b92915050565b600081519050612086816132cc565b92915050565b600082601f83011261209d57600080fd5b81356120ad848260208601611fa7565b91505092915050565b600082601f8301126120c757600080fd5b81356120d7848260208601611fe5565b91505092915050565b6000813590506120ef816132e3565b92915050565b600081519050612104816132e3565b92915050565b60006020828403121561211c57600080fd5b600061212a84828501612023565b91505092915050565b60006020828403121561214557600080fd5b600061215384828501612038565b91505092915050565b6000806040838503121561216f57600080fd5b600061217d85828601612023565b925050602061218e85828601612023565b9150509250929050565b6000806000606084860312156121ad57600080fd5b60006121bb86828701612023565b93505060206121cc86828701612023565b92505060406121dd868287016120e0565b9150509250925092565b600080600080608085870312156121fd57600080fd5b600061220b87828801612023565b945050602061221c87828801612023565b935050604061222d878288016120e0565b925050606085013567ffffffffffffffff81111561224a57600080fd5b6122568782880161208c565b91505092959194509250565b6000806040838503121561227557600080fd5b600061228385828601612023565b92505060206122948582860161204d565b9150509250929050565b600080604083850312156122b157600080fd5b60006122bf85828601612023565b92505060206122d0858286016120e0565b9150509250929050565b6000602082840312156122ec57600080fd5b60006122fa84828501612062565b91505092915050565b60006020828403121561231557600080fd5b600061232384828501612077565b91505092915050565b60006020828403121561233e57600080fd5b600082013567ffffffffffffffff81111561235857600080fd5b612364848285016120b6565b91505092915050565b60006020828403121561237f57600080fd5b600061238d848285016120e0565b91505092915050565b6000602082840312156123a857600080fd5b60006123b6848285016120f5565b91505092915050565b6123c881612ba6565b82525050565b6123d781612b94565b82525050565b6123e681612bb8565b82525050565b60006123f782612a96565b6124018185612aac565b9350612411818560208601612c29565b61241a81612df5565b840191505092915050565b600061243082612aa1565b61243a8185612abd565b935061244a818560208601612c29565b61245381612df5565b840191505092915050565b600061246982612aa1565b6124738185612ace565b9350612483818560208601612c29565b80840191505092915050565b600061249c603283612abd565b91506124a782612e06565b604082019050919050565b60006124bf602683612abd565b91506124ca82612e55565b604082019050919050565b60006124e2602583612abd565b91506124ed82612ea4565b604082019050919050565b6000612505601c83612abd565b915061251082612ef3565b602082019050919050565b6000612528602483612abd565b915061253382612f1c565b604082019050919050565b600061254b601983612abd565b915061255682612f6b565b602082019050919050565b600061256e602c83612abd565b915061257982612f94565b604082019050919050565b6000612591603883612abd565b915061259c82612fe3565b604082019050919050565b60006125b4602a83612abd565b91506125bf82613032565b604082019050919050565b60006125d7602983612abd565b91506125e282613081565b604082019050919050565b60006125fa602083612abd565b9150612605826130d0565b602082019050919050565b600061261d602c83612abd565b9150612628826130f9565b604082019050919050565b6000612640602083612abd565b915061264b82613148565b602082019050919050565b6000612663602f83612abd565b915061266e82613171565b604082019050919050565b6000612686602183612abd565b9150612691826131c0565b604082019050919050565b60006126a9603183612abd565b91506126b48261320f565b604082019050919050565b60006126cc601283612abd565b91506126d78261325e565b602082019050919050565b6126eb81612c10565b82525050565b60006126fd828561245e565b9150612709828461245e565b91508190509392505050565b600060208201905061272a60008301846123ce565b92915050565b600060208201905061274560008301846123bf565b92915050565b600060808201905061276060008301876123ce565b61276d60208301866123ce565b61277a60408301856126e2565b818103606083015261278c81846123ec565b905095945050505050565b60006020820190506127ac60008301846123dd565b92915050565b600060208201905081810360008301526127cc8184612425565b905092915050565b600060208201905081810360008301526127ed8161248f565b9050919050565b6000602082019050818103600083015261280d816124b2565b9050919050565b6000602082019050818103600083015261282d816124d5565b9050919050565b6000602082019050818103600083015261284d816124f8565b9050919050565b6000602082019050818103600083015261286d8161251b565b9050919050565b6000602082019050818103600083015261288d8161253e565b9050919050565b600060208201905081810360008301526128ad81612561565b9050919050565b600060208201905081810360008301526128cd81612584565b9050919050565b600060208201905081810360008301526128ed816125a7565b9050919050565b6000602082019050818103600083015261290d816125ca565b9050919050565b6000602082019050818103600083015261292d816125ed565b9050919050565b6000602082019050818103600083015261294d81612610565b9050919050565b6000602082019050818103600083015261296d81612633565b9050919050565b6000602082019050818103600083015261298d81612656565b9050919050565b600060208201905081810360008301526129ad81612679565b9050919050565b600060208201905081810360008301526129cd8161269c565b9050919050565b600060208201905081810360008301526129ed816126bf565b9050919050565b6000602082019050612a0960008301846126e2565b92915050565b6000612a19612a2a565b9050612a258282612c8e565b919050565b6000604051905090565b600067ffffffffffffffff821115612a4f57612a4e612dc6565b5b612a5882612df5565b9050602081019050919050565b600067ffffffffffffffff821115612a8057612a7f612dc6565b5b612a8982612df5565b9050602081019050919050565b600081519050919050565b600081519050919050565b600082825260208201905092915050565b600082825260208201905092915050565b600081905092915050565b6000612ae482612c10565b9150612aef83612c10565b9250827fffffffffffffffffffffffffffffffffffffffffffffffffffffffffffffffff03821115612b2457612b23612d39565b5b828201905092915050565b6000612b3a82612c10565b9150612b4583612c10565b925082612b5557612b54612d68565b5b828204905092915050565b6000612b6b82612c10565b9150612b7683612c10565b925082821015612b8957612b88612d39565b5b828203905092915050565b6000612b9f82612bf0565b9050919050565b6000612bb182612bf0565b9050919050565b60008115159050919050565b60007fffffffff0000000000000000000000000000000000000000000000000000000082169050919050565b600073ffffffffffffffffffffffffffffffffffffffff82169050919050565b6000819050919050565b82818337600083830152505050565b60005b83811015612c47578082015181840152602081019050612c2c565b83811115612c56576000848401525b50505050565b60006002820490506001821680612c7457607f821691505b60208210811415612c8857612c87612d97565b5b50919050565b612c9782612df5565b810181811067ffffffffffffffff82111715612cb657612cb5612dc6565b5b80604052505050565b6000612cca82612c10565b91507fffffffffffffffffffffffffffffffffffffffffffffffffffffffffffffffff821415612cfd57612cfc612d39565b5b600182019050919050565b6000612d1382612c10565b9150612d1e83612c10565b925082612d2e57612d2d612d68565b5b828206905092915050565b7f4e487b7100000000000000000000000000000000000000000000000000000000600052601160045260246000fd5b7f4e487b7100000000000000000000000000000000000000000000000000000000600052601260045260246000fd5b7f4e487b7100000000000000000000000000000000000000000000000000000000600052602260045260246000fd5b7f4e487b7100000000000000000000000000000000000000000000000000000000600052604160045260246000fd5b6000601f19601f8301169050919050565b7f4552433732313a207472616e7366657220746f206e6f6e20455243373231526560008201527f63656976657220696d706c656d656e7465720000000000000000000000000000602082015250565b7f4f776e61626c653a206e6577206f776e657220697320746865207a65726f206160008201527f6464726573730000000000000000000000000000000000000000000000000000602082015250565b7f4552433732313a207472616e736665722066726f6d20696e636f72726563742060008201527f6f776e6572000000000000000000000000000000000000000000000000000000602082015250565b7f4552433732313a20746f6b656e20616c7265616479206d696e74656400000000600082015250565b7f4552433732313a207472616e7366657220746f20746865207a65726f2061646460008201527f7265737300000000000000000000000000000000000000000000000000000000602082015250565b7f4552433732313a20617070726f766520746f2063616c6c657200000000000000600082015250565b7f4552433732313a206f70657261746f7220717565727920666f72206e6f6e657860008201527f697374656e7420746f6b656e0000000000000000000000000000000000000000602082015250565b7f4552433732313a20617070726f76652063616c6c6572206973206e6f74206f7760008201527f6e6572206e6f7220617070726f76656420666f7220616c6c0000000000000000602082015250565b7f4552433732313a2062616c616e636520717565727920666f7220746865207a6560008201527f726f206164647265737300000000000000000000000000000000000000000000602082015250565b7f4552433732313a206f776e657220717565727920666f72206e6f6e657869737460008201527f656e7420746f6b656e0000000000000000000000000000000000000000000000602082015250565b7f4552433732313a206d696e7420746f20746865207a65726f2061646472657373600082015250565b7f4552433732313a20617070726f76656420717565727920666f72206e6f6e657860008201527f697374656e7420746f6b656e0000000000000000000000000000000000000000602082015250565b7f4f776e61626c653a2063616c6c6572206973206e6f7420746865206f776e6572600082015250565b7f4552433732314d657461646174613a2055524920717565727920666f72206e6f60008201527f6e6578697374656e7420746f6b656e0000000000000000000000000000000000602082015250565b7f4552433732313a20617070726f76616c20746f2063757272656e74206f776e6560008201527f7200000000000000000000000000000000000000000000000000000000000000602082015250565b7f4552433732313a207472616e736665722063616c6c6572206973206e6f74206f60008201527f776e6572206e6f7220617070726f766564000000000000000000000000000000602082015250565b7f4d617820737570706c7920726561636865640000000000000000000000000000600082015250565b61329081612b94565b811461329b57600080fd5b50565b6132a781612ba6565b81146132b257600080fd5b50565b6132be81612bb8565b81146132c957600080fd5b50565b6132d581612bc4565b81146132e057600080fd5b50565b6132ec81612c10565b81146132f757600080fd5b5056fea26469706673582212208201ad931415b3afab179f2f73ef1352885beba3080f9c54b9b8132497e4cd7d64736f6c63430008010033608060405234801561001057600080fd5b5061002d61002261003260201b60201c565b61003a60201b60201c565b6100fe565b600033905090565b60008060009054906101000a900473ffffffffffffffffffffffffffffffffffffffff169050816000806101000a81548173ffffffffffffffffffffffffffffffffffffffff021916908373ffffffffffffffffffffffffffffffffffffffff1602179055508173ffffffffffffffffffffffffffffffffffffffff168173ffffffffffffffffffffffffffffffffffffffff167f8be0079c531659141344cd1fd0a4f28419497f9722a3daafe3b4186f6b6457e060405160405180910390a35050565b610bfc8061010d6000396000f3fe6080604052600436106100555760003560e01c806351cff8d91461005a578063715018a6146100835780638da5cb5b1461009a578063e3a9db1a146100c5578063f2fde38b14610102578063f340fa011461012b575b600080fd5b34801561006657600080fd5b50610081600480360381019061007c91906107f5565b610147565b005b34801561008f57600080fd5b506100986102c7565b005b3480156100a657600080fd5b506100af61034f565b6040516100bc9190610900565b60405180910390f35b3480156100d157600080fd5b506100ec60048036038101906100e791906107cc565b610378565b6040516100f9919061099b565b60405180910390f35b34801561010e57600080fd5b50610129600480360381019061012491906107cc565b6103c1565b005b610145600480360381019061014091906107cc565b6104b9565b005b61014f6105e2565b73ffffffffffffffffffffffffffffffffffffffff1661016d61034f565b73ffffffffffffffffffffffffffffffffffffffff16146101c3576040517f08c379a00000000000000000000000000000000000000000000000000000000081526004016101ba9061097b565b60405180910390fd5b6000600160008373ffffffffffffffffffffffffffffffffffffffff1673ffffffffffffffffffffffffffffffffffffffff1681526020019081526020016000205490506000600160008473ffffffffffffffffffffffffffffffffffffffff1673ffffffffffffffffffffffffffffffffffffffff16815260200190815260200160002081905550610275818373ffffffffffffffffffffffffffffffffffffffff166105ea90919063ffffffff16565b8173ffffffffffffffffffffffffffffffffffffffff167f7084f5476618d8e60b11ef0d7d3f06914655adb8793e28ff7f018d4c76d505d5826040516102bb919061099b565b60405180910390a25050565b6102cf6105e2565b73ffffffffffffffffffffffffffffffffffffffff166102ed61034f565b73ffffffffffffffffffffffffffffffffffffffff1614610343576040517f08c379a000000000000000000000000000000000000000000000000000000000815260040161033a9061097b565b60405180910390fd5b61034d60006106de565b565b60008060009054906101000a900473ffffffffffffffffffffffffffffffffffffffff16905090565b6000600160008373ffffffffffffffffffffffffffffffffffffffff1673ffffffffffffffffffffffffffffffffffffffff168152602001908152602001600020549050919050565b6103c96105e2565b73ffffffffffffffffffffffffffffffffffffffff166103e761034f565b73ffffffffffffffffffffffffffffffffffffffff161461043d576040517f08c379a00000000000000000000000000000000000000000000000000000000081526004016104349061097b565b60405180910390fd5b600073ffffffffffffffffffffffffffffffffffffffff168173ffffffffffffffffffffffffffffffffffffffff1614156104ad576040517f08c379a00000000000000000000000000000000000000000000000000000000081526004016104a49061091b565b60405180910390fd5b6104b6816106de565b50565b6104c16105e2565b73ffffffffffffffffffffffffffffffffffffffff166104df61034f565b73ffffffffffffffffffffffffffffffffffffffff1614610535576040517f08c379a000000000000000000000000000000000000000000000000000000000815260040161052c9061097b565b60405180910390fd5b600034905080600160008473ffffffffffffffffffffffffffffffffffffffff1673ffffffffffffffffffffffffffffffffffffffff168152602001908152602001600020600082825461058991906109d2565b925050819055508173ffffffffffffffffffffffffffffffffffffffff167f2da466a7b24304f47e87fa2e1e5a81b9831ce54fec19055ce277ca2f39ba42c4826040516105d6919061099b565b60405180910390a25050565b600033905090565b8047101561062d576040517f08c379a00000000000000000000000000000000000000000000000000000000081526004016106249061095b565b60405180910390fd5b60008273ffffffffffffffffffffffffffffffffffffffff1682604051610653906108eb565b60006040518083038185875af1925050503d8060008114610690576040519150601f19603f3d011682016040523d82523d6000602084013e610695565b606091505b50509050806106d9576040517f08c379a00000000000000000000000000000000000000000000000000000000081526004016106d09061093b565b60405180910390fd5b505050565b60008060009054906101000a900473ffffffffffffffffffffffffffffffffffffffff169050816000806101000a81548173ffffffffffffffffffffffffffffffffffffffff021916908373ffffffffffffffffffffffffffffffffffffffff1602179055508173ffffffffffffffffffffffffffffffffffffffff168173ffffffffffffffffffffffffffffffffffffffff167f8be0079c531659141344cd1fd0a4f28419497f9722a3daafe3b4186f6b6457e060405160405180910390a35050565b6000813590506107b181610b98565b92915050565b6000813590506107c681610baf565b92915050565b6000602082840312156107de57600080fd5b60006107ec848285016107a2565b91505092915050565b60006020828403121561080757600080fd5b6000610815848285016107b7565b91505092915050565b61082781610a28565b82525050565b600061083a6026836109c1565b915061084582610aa5565b604082019050919050565b600061085d603a836109c1565b915061086882610af4565b604082019050919050565b6000610880601d836109c1565b915061088b82610b43565b602082019050919050565b60006108a36020836109c1565b91506108ae82610b6c565b602082019050919050565b60006108c66000836109b6565b91506108d182610b95565b600082019050919050565b6108e581610a6c565b82525050565b60006108f6826108b9565b9150819050919050565b6000602082019050610915600083018461081e565b92915050565b600060208201905081810360008301526109348161082d565b9050919050565b6000602082019050818103600083015261095481610850565b9050919050565b6000602082019050818103600083015261097481610873565b9050919050565b6000602082019050818103600083015261099481610896565b9050919050565b60006020820190506109b060008301846108dc565b92915050565b600081905092915050565b600082825260208201905092915050565b60006109dd82610a6c565b91506109e883610a6c565b9250827fffffffffffffffffffffffffffffffffffffffffffffffffffffffffffffffff03821115610a1d57610a1c610a76565b5b828201905092915050565b6000610a3382610a4c565b9050919050565b6000610a4582610a4c565b9050919050565b600073ffffffffffffffffffffffffffffffffffffffff82169050919050565b6000819050919050565b7f4e487b7100000000000000000000000000000000000000000000000000000000600052601160045260246000fd5b7f4f776e61626c653a206e6577206f776e657220697320746865207a65726f206160008201527f6464726573730000000000000000000000000000000000000000000000000000602082015250565b7f416464726573733a20756e61626c6520746f2073656e642076616c75652c207260008201527f6563697069656e74206d61792068617665207265766572746564000000000000602082015250565b7f416464726573733a20696e73756666696369656e742062616c616e6365000000600082015250565b7f4f776e61626c653a2063616c6c6572206973206e6f7420746865206f776e6572600082015250565b50565b610ba181610a28565b8114610bac57600080fd5b50565b610bb881610a3a565b8114610bc357600080fd5b5056fea264697066735822122073b307195fd92b28f2600edbbb914776573abe0392628b3f8a5ee2d6ab956cfa64736f6c63430008010033",
  "linkReferences": {},
  "deployedLinkReferences": {}
}